:020000040800F2
:1000000000500020D98A0008D94D0008DD4D0008B5
:10001000E14D0008E54D0008E94D00080000000032
:10002000000000000000000000000000D170000887
:10003000ED4D00080000000061710008A571000886
:10004000D58A0008D58A0008D58A0008D58A000814
:10005000D58A0008D58A0008414F0008D58A0008D3
:10006000D58A0008D58A0008D58A0008694F00089B
:10007000D58A0008D58A0008D58A0008D58A0008E4
:10008000D58A0008D58A0008754F0008D58A00086F
:10009000D58A0008D58A0008D58A0008D58A0008C4
:1000A000D58A0008D58A0008D58A0008D58A0008B4
:1000B000294F0008354F00081D4F0008D58A000859
:1000C000D58A0008D58A0008D58A0008D58A000894
:1000D000D58A0008F14D0008554E0008B94E0008B9
:1000E000494F0008D58A0008D58A000800000000A2
:1000F0000000000000000000000000000000000000
:0C01000000000000000000005FF808F1A3
:100110000348044B834202D0034B03B11847704796
:1001200094000020940000200000000005480649CB
:10013000091A891001EBD171491002D0034B03B1A8
:100140001847704794000020940000200000000031
:1001500010B5064C237843B9FFF7DAFF044B13B10F
:100160000448AFF300800123237010BD98000020E5
:1001700000000000B08D000808B5044B1BB1044915
:100180000448AFF30080BDE80840CFE7000000005E
:100190009C000020B08D000881F0004102E000BF0B
:1001A00083F0004330B54FEA41044FEA430594EA37
:1001B000050F08BF90EA020F1FBF54EA000C55EA72
:1001C000020C7FEA645C7FEA655C00F0E2804FEA43
:1001D0005454D4EB5555B8BF6D420CDD2C4480EA25
:1001E000020281EA030382EA000083EA010180EA55
:1001F000020281EA0303362D88BF30BD11F0004FA3
:100200004FEA01314FF4801C4CEA113102D04042D8
:1002100061EB410113F0004F4FEA03334CEA133313
:1002200002D0524263EB430394EA050F00F0A7802B
:10023000A4F10104D5F1200E0DDB02FA0EFC22FA26
:1002400005F2801841F1000103FA0EF2801843FA1A
:1002500005F359410EE0A5F120050EF1200E012A0B
:1002600003FA0EFC28BF4CF0020C43FA05F3C01849
:1002700051EBE37101F0004507D54FF0000EDCF1C2
:10028000000C7EEB00006EEB0101B1F5801F1BD36B
:10029000B1F5001F0CD349085FEA30004FEA3C0C6F
:1002A00004F101044FEA445212F5800F80F09A8065
:1002B000BCF1004F08BF5FEA500C50F1000041EB69
:1002C000045141EA050130BD5FEA4C0C404141EB6D
:1002D000010111F4801FA4F10104E9D191F0000F94
:1002E00004BF01460020B1FA81F308BF2033A3F117
:1002F0000B03B3F120020CDA0C3208DD02F1140C0E
:10030000C2F10C0201FA0CF021FA02F10CE002F148
:100310001402D8BFC2F1200C01FA02F120FA0CFC41
:10032000DCBF41EA0C019040E41AA2BF01EB04518A
:10033000294330BD6FEA04041F3C1CDA0C340EDC88
:1003400004F11404C4F1200220FA04F001FA02F3CB
:1003500040EA030021FA04F345EA030130BDC4F189
:100360000C04C4F1200220FA02F001FA04F340EA7E
:100370000300294630BD21FA04F0294630BD94F02F
:10038000000F83F4801306BF81F480110134013D16
:100390004EE77FEA645C18BF7FEA655C29D094EA87
:1003A000050F08BF90EA020F05D054EA000C04BF05
:1003B0001946104630BD91EA030F1EBF00210020F0
:1003C00030BD5FEA545C05D14000494128BF41F08F
:1003D000004130BD14F580043CBF01F5801130BDF3
:1003E00001F0004545F0FE4141F470014FF000007E
:1003F00030BD7FEA645C1ABF194610467FEA655C2F
:100400001CBF0B46024650EA013406BF52EA0335D0
:1004100091EA030F41F4002130BD00BF90F0000FBE
:1004200004BF0021704730B54FF4806404F13204FA
:100430004FF000054FF0000150E700BF90F0000FB3
:1004400004BF0021704730B54FF4806404F13204DA
:1004500010F0004548BF40424FF000013EE700BFAA
:1004600042004FEAE2014FEA31014FEA02701FBF3A
:1004700012F07F4393F07F4F81F06051704732F06C
:100480007F4208BF704793F07F4F04BF41F40021C3
:10049000704730B54FF4607401F0004521F0004121
:1004A0001CE700BF50EA010208BF704730B54FF0AB
:1004B00000050AE050EA010208BF704730B511F0AC
:1004C000004502D5404261EB41014FF4806404F1E4
:1004D00032045FEA915C3FF4D8AE4FF003025FEA6A
:1004E000DC0C18BF03325FEADC0C18BF033202EBEE
:1004F000DC02C2F1200300FA03FC20FA02F001FA48
:1005000003FE40EA0E0021FA02F11444BDE600BFEA
:1005100070B54FF0FF0C4CF4E06C1CEA11541DBF99
:100520001CEA135594EA0C0F95EA0C0F00F0DEF864
:100530002C4481EA030621EA4C5123EA4C5350EA49
:10054000013518BF52EA033541F4801143F480139A
:1005500038D0A0FB02CE4FF00005E1FB02E506F02B
:100560000042E0FB03E54FF00006E1FB03569CF080
:10057000000F18BF4EF0010EA4F1FF04B6F5007F86
:1005800064F5407404D25FEA4E0E6D4146EB0606F8
:1005900042EAC62141EA55514FEAC52040EA5E5081
:1005A0004FEACE2EB4F1FD0C88BFBCF5E06F1ED82B
:1005B000BEF1004F08BF5FEA500E50F1000041EB62
:1005C000045170BD06F0004646EA010140EA02000F
:1005D00081EA0301B4EB5C04C2BFD4EB0C0541EA31
:1005E000045170BD41F480114FF0000E013C00F346
:1005F000AB8014F1360FDEBF002001F0004170BD6A
:10060000C4F10004203C35DA0C341BDC04F1140482
:10061000C4F1200500FA05F320FA04F001FA05F20E
:1006200040EA020001F0004221F0004110EBD370DB
:1006300021FA04F642EB06015EEA430E08BF20EA07
:10064000D37070BDC4F10C04C4F1200500FA04F3AA
:1006500020FA05F001FA04F240EA020001F000413C
:1006600010EBD37041F100015EEA430E08BF20EAAF
:10067000D37070BDC4F1200500FA05F24EEA020EF7
:1006800020FA04F301FA05F243EA020321FA04F026
:1006900001F0004121FA04F220EA020000EBD370DD
:1006A0005EEA430E08BF20EAD37070BD94F0000FDD
:1006B0000FD101F00046400041EB010111F4801F11
:1006C00008BF013CF7D041EA060195F0000F18BFC2
:1006D000704703F00046520043EB030313F4801FFE
:1006E00008BF013DF7D043EA0603704794EA0C0FB8
:1006F0000CEA135518BF95EA0C0F0CD050EA4106CE
:1007000018BF52EA4306D1D181EA030101F000414A
:100710004FF0000070BD50EA410606BF1046194672
:1007200052EA430619D094EA0C0F02D150EA01367E
:1007300013D195EA0C0F05D152EA03361CBF1046BF
:1007400019460AD181EA030101F0004141F0FE415E
:1007500041F470014FF0000070BD41F0FE4141F4E2
:10076000780170BD70B54FF0FF0C4CF4E06C1CEAE2
:1007700011541DBF1CEA135594EA0C0F95EA0C0F97
:1007800000F0A7F8A4EB050481EA030E52EA033552
:100790004FEA013100F088804FEA03334FF0805573
:1007A00045EA131343EA12634FEA022245EA1115A0
:1007B00045EA10654FEA00260EF000419D4208BF51
:1007C000964244F1FD0404F5407402D25B084FEAFE
:1007D0003202B61A65EB03055B084FEA32024FF4AA
:1007E00080104FF4002CB6EB020E75EB030E22BF07
:1007F000B61A754640EA0C005B084FEA3202B6EBC7
:10080000020E75EB030E22BFB61A754640EA5C0075
:100810005B084FEA3202B6EB020E75EB030E22BF05
:10082000B61A754640EA9C005B084FEA3202B6EB06
:10083000020E75EB030E22BFB61A754640EADC00C5
:1008400055EA060E18D04FEA051545EA16754FEA27
:1008500006164FEAC30343EA52734FEAC2025FEA45
:100860001C1CC0D111F4801F0BD141EA00014FF0D4
:1008700000004FF0004CB6E711F4801F04BF0143A5
:100880000020B4F1FD0C88BFBCF5E06F3FF6AFAEC1
:10089000B5EB030C04BFB6EB020C5FEA500C50F151
:1008A000000041EB045170BD0EF0004E4EEA1131D4
:1008B00014EB5C04C2BFD4EB0C0541EA045170BDDB
:1008C00041F480114FF0000E013C90E645EA060E1F
:1008D0008DE60CEA135594EA0C0F08BF95EA0C0F4D
:1008E0003FF43BAF94EA0C0F0AD150EA01347FF495
:1008F00034AF95EA0C0F7FF425AF104619462CE76C
:1009000095EA0C0F06D152EA03353FF4FDAE1046CE
:10091000194622E750EA410618BF52EA43067FF41F
:10092000C5AE50EA41047FF40DAF52EA43057FF4AF
:10093000EBAE12E74FF0FF3C06E000BF4FF0010CBA
:1009400002E000BF4FF0010C4DF804CD4FEA410C1E
:100950007FEA6C5C4FEA430C18BF7FEA6C5C1BD0EB
:1009600001B050EA410C0CBF52EA430C91EA030F6C
:1009700002BF90EA020F0020704710F1000F91EAC9
:10098000030F58BF994208BF90422CBFD8176FEA97
:10099000E37040F0010070474FEA410C7FEA6C5C65
:1009A00002D150EA013C07D14FEA430C7FEA6C5C6C
:1009B000D6D152EA033CD3D05DF8040B704700BF98
:1009C0008446104662468C461946634600E000BFE6
:1009D00001B5FFF7B7FF002848BF10F1000F01BDB8
:1009E0004DF808EDFFF7F4FF0CBF012000205DF883
:1009F00008FB00BF4DF808EDFFF7EAFF34BF012008
:100A000000205DF808FB00BF4DF808EDFFF7E0FFA0
:100A100094BF012000205DF808FB00BF4DF808EDF1
:100A2000FFF7CEFF94BF012000205DF808FB00BF58
:100A30004DF808EDFFF7C4FF34BF012000205DF83A
:100A400008FB00BF4FEA410212F5001215D211D582
:100A50006FF47873B3EB625212D94FEAC12343F0BB
:100A6000004343EA505311F0004F23FA02F018BF3D
:100A7000404270474FF00000704750EA013005D106
:100A800011F0004008BF6FF0004070474FF00000C9
:100A9000704700BF4A0011D212F5001211D20DD5D5
:100AA0006FF47873B3EB62520ED44FEAC12343F074
:100AB000004343EA505323FA02F070474FF000001E
:100AC000704750EA013002D14FF0FF3070474FF0CD
:100AD000000070478B892DE9F0411A070C468046CB
:100AE0003BD44A68002A54DDE56A002D4ED000222E
:100AF000D8F80060216AC8F8002013F480527CD135
:100B000001234046A847431C47D0A389E56A216AD0
:100B10005F0705D56268636B801A0BB1236CC01A3E
:100B2000024600234046A847451C42D0002363608C
:100B3000A3892269DB04226000D56065616BC8F877
:100B4000006019B304F14403994202D0404600F01A
:100B500039FB00206063BDE8F0810E69B6B19A07E9
:100B600018BF00230D6808BF4B690E60AD1B8B607A
:100B70000AE02B463246A76A216A4046B847002859
:100B8000A5EB0005064428DD002DF2DC0020BDE8C1
:100B9000F0810A6C002AA7DCF8E7D8F80030002BB7
:100BA000B3D01D2B01D0162B29D1C8F8006000202E
:100BB000EDE7D8F800201D2A17D8134BB4F90C1014
:100BC000D340DB4313F0010311D12569C904C4E903
:100BD0000053B3D5002AB1D1AFE7A3894FF0FF305E
:100BE00043F04003A381BDE8F081B4F90C1041F05B
:100BF0004001A1814FF0FF30C9E7606D88E7A3890C
:100C000043F04003A381C2E7010040200B6923B3F6
:100C100010B5044682B008B18369BBB1104B99424C
:100C200012D0104B994216D00F4B994208BFE16881
:100C3000B1F90C3013B9002002B010BD204602B04B
:100C4000BDE81040FFF746BF6168F1E7019100F091
:100C500007F90199E2E7A168EAE70020704700BFC1
:100C6000E08B0008C08B0008A08B000820B1054B6A
:100C700001461868FFF7CABF034B0449186800F023
:100C800033B900BF30000020008C00080D0C0008B4
:100C900000207047014900F027B900BF0D0C000883
:100CA0000020704770B568254A1E05FB02F50E4608
:100CB00005F1740100F0DAFA044640B100210C306D
:100CC000666005F168022160A06000F031FA2046FC
:100CD00070BD00BF1E4B70B51D680646AB6943B3BF
:100CE0004835D5E90134013B05D51EE0013B5A1CCE
:100CF00004F1680419D0B4F90C20002AF6D10025BB
:100D0000144B6566C4E90055A560C4E90455A561A6
:100D10002946E360082204F15C0000F009FAC4E906
:100D20000D55C4E91255204670BD286828B1054606
:100D3000D7E7284600F010F8D2E704213046FFF745
:100D4000B1FF28600028F2D10C2304463360EAE7A3
:100D5000008C00080100FFFF2DE9F84F0023334A03
:100D6000C0E9123312680365904208BF012330497D
:100D700008BF836181620546FFF7ACFF68602846C3
:100D8000FFF7A8FFA86028460024FFF7A3FF04236D
:100D90006E68E8602146F3607466C6E90044B4609A
:100DA000C6E90444B46106F15C00082200F0C0F911
:100DB000DFF888B0AF68DFF888A0DFF88890DFF848
:100DC00088801C4BC6E9086BC6E90AA9C6F83080C2
:100DD0002146FB6008227C66C7E90044BC60C7E985
:100DE0000444BC6107F15C0000F0A2F9EE68124B0C
:100DF000C7E9087BC7E90AA9C7F830802146F36034
:100E00007466C6E90044B460C6E90444B46106F1FE
:100E10005C00082200F08CF90123C6E9086BC6E9E2
:100E20000AA9C6F83080AB61BDE8F88F008C0008D5
:100E3000950C00080900010012000200C11300080F
:100E4000E91300082514000845140008024B034963
:100E5000186800F049B800BF008C00080D0C0008AD
:100E6000836903B978E77047704700BF704700BFD8
:100E7000704700BF704700BF024B0349186800F07D
:100E80000FB800BF30000020910C0008024B03494E
:100E9000186800F005B800BF30000020A10C000861
:100EA0002DE9F04110F148071AD088460026D7E90D
:100EB0000154013D0ED4A389013D012B06D9B4F99B
:100EC0000E30013302D02046C04706436B1C04F1AC
:100ED0006804F0D13F68002FE9D13046BDE8F081C9
:100EE0003E463046BDE8F0812DE9F84310F1480652
:100EF0001ED0884607464FF00009D6E90154013D4F
:100F000010D4A389013D012B08D9B4F90E30013367
:100F100004D021463846C04749EA00096B1C04F159
:100F20006804EED13668002EE7D14846BDE8F88364
:100F3000B1464846BDE8F88370B50D4E0D4D761BA1
:100F4000B61006D00024013455F8043B9847A64259
:100F5000F9D1094E094D07F01FFF761BB61006D0D8
:100F60000024013455F8043B9847A642F9D170BDDE
:100F7000B08D0008B08D0008B48D0008B08D000859
:100F8000844641EA000313F0030349D1403A23D3D6
:100F90000B6803604B6843608B688360CB68C360F9
:100FA0000B6903614B6943618B698361CB69C361E1
:100FB0000B6A03624B6A43628B6A8362CB6AC362C9
:100FC0000B6B03634B6B43638B6B8363CB6BC363B1
:100FD00040304031403ADBD230320BD30B680360F3
:100FE0004B6843608B688360CB68C36010301031FE
:100FF000103AF3D20C3205D351F8043B40F8043BCD
:10100000043AF9D2043208D0D2071CBF11F8013BD0
:1010100000F8013B01D30B8803806046704700BF96
:10102000082A13D38B07B1D010F00303AED0C3F15D
:101030000403D21ADB071CBF11F8013B00F8013B87
:10104000A4D331F8023B20F8023B9FE7043AD9D3FE
:10105000013A11F8013B00F8013BF9D20B7803701B
:101060004B7843708B788370604670478842F0B449
:101070000DD98B1883420AD9841832B1224613F84D
:10108000014D994202F8014DF9D1F0BC70470F2A89
:1010900048D940EA01039B0746D1A2F110031B097E
:1010A00001F1200707EB031701F1100400F110050F
:1010B00054F8106C103445F8106C54F81C6C103552
:1010C00045F81C6C54F8186C45F8186C54F8146CFE
:1010D000BC4245F8146CEBD1013302F00F051B0143
:1010E000032D1944034421D90F462C461E1F57F8DF
:1010F00004CB043C032C46F804CFF8D82C1F24F072
:10110000030404342344214402F00302002ABCD027
:10111000013B0A4411F8014B914203F8014FF9D108
:10112000F0BC70470346F1E70346F1E72A46EDE7D6
:10113000F0B4860743D0541E002A3ED0CAB20346FC
:1011400002E014F1FF3438D303F8012B9D07F8D1E6
:10115000032C2BD9CDB245EA05250F2C45EA0545D0
:1011600016D9A4F110073F0903F1200606EB071674
:1011700003F1100242E9045542E902551032B2422D
:10118000F8D104F00F040137032C03EB07130DD93A
:101190001E462246043A032A46F8045BFAD8221F68
:1011A00022F003020432134404F003042CB1C9B248
:1011B0001C4403F8011B9C42FBD1F0BC7047144651
:1011C0000346C5E7002934D038B551F8043C0C1F5C
:1011D000002BB8BFE418054600F0B0FA224B1A689D
:1011E0002AB1A2420DD921686018824235D06260CE
:1011F00028461C60BDE8384000F0A2BAA34203D8DC
:101200001A465368002BF9D111685018A04218D023
:1012100010D821686018834203BFD3E9000309187E
:10122000C4E90013636054602846BDE8384000F00C
:1012300087BA70470C2328462B60BDE8384000F081
:101240007FBA20680144501883421160ECD1D3E981
:1012500000030144C2E90013E6E7D2E900020144B9
:10126000C4E90012C4E700BF50360020F8B5CD1C19
:1012700025F0030508350C2D38BF0C25002D06463A
:101280003ADBA94238D82A4F00F058FA3A6852B1EE
:1012900013685B1B04D433E023685B1B25D522460F
:1012A0005468002CF8D1796800293BD02946304693
:1012B00000F074F8431C2AD0C41C24F00304A0429C
:1012C00005D0211A304600F069F801301FD02560A2
:1012D000304600F035FA04F10B0020F00700231D22
:1012E000C31A01D05A42E250F8BD0B2B0BD8A242D0
:1012F00015D063685360EBE70C2300203360F8BD22
:101300000B2B0BD9144623601C442560E0E70C230B
:101310003046336000F014FA0020F8BD54683C6099
:101320001446D5E7304600F039F87860BEE700BFD4
:10133000503600200EB430B5044682B008B183693F
:1013400063B106AD2B46059AA1682046019500F0D1
:101350003BFA02B0BDE8304003B07047FFF780FDB4
:10136000EFE700BF0FB430B50B4B83B01C680CB176
:10137000A36963B107AD2B46069AA1682046019583
:1013800000F022FA03B0BDE8304004B070472046B8
:10139000FFF766FDEEE700BF3000002038B5002300
:1013A000064C05460846236001F0F8F8431C00D0BF
:1013B00038BD2368002BFBD02B6038BD703F002068
:1013C00010B50C46B1F90E1000F03EFD002803DB0D
:1013D000636D0344636510BDA38923F48053A38127
:1013E00010BD00BF002070472DE9F041B1F90C405D
:1013F0009846E3050D461746B1F90E10064607D587
:101400000223002200F084F9B5F90C40B5F90E1062
:1014100024F48054AC8143463A463046BDE8F0415E
:1014200000F04EB910B50C46B1F90E1000F070F98D
:10143000A389421C0EBF23F4805343F4805360659C
:10144000A38110BDB1F90E1000F050B941EA0003BC
:101450009B0708D0034611F8012B184603F8012B0F
:10146000002AF8D170470B68A3F1013222EA030287
:1014700012F0803FEED110B40C1D40F8043B214621
:1014800054F8043BA3F1013222EA030212F0803F38
:10149000F3D0034611F8012B184603F8012B002A5C
:1014A000F8D110BC704700BF80EA010C1CF0030F9C
:1014B00037D110F0030C20F0030021F0030150F8A5
:1014C000042B08BF51F8043B0ED08CF0030C6FF0D6
:1014D0007F434FEACC0C23FA0CFC51F8043B42EA60
:1014E0000C0243EA0C0300BFA2F1013C9A4201BF87
:1014F0002CEA020C1CF0803F50F8042B51F8043BFE
:10150000F2D04FEA02604FEA1222012828BFB0EB66
:10151000036F08BF1B0AF4D003F0FF03000EC01ACC
:10152000704710F0030F0AD010F8012B11F8013B9F
:10153000012A28BF9A42F4D0A2EB030070474DF86D
:10154000045D50F8042B01F0030521F0030151F86C
:10155000043B022D26D04DD822F07F45B5EB132F4A
:10156000A2F1013C2CEA020C0DD11CF0803C08BF1A
:1015700051F8043B0AD185EA0205B5EB036F0CD1A3
:1015800050F8042BE8E74FEA13235BE03CF07F4C74
:1015900054D10B784FEA126554E04FEA126503F01C
:1015A000FF034FE04FEA0245A2F1013C4FEA154527
:1015B0002CEA020CB5EB134F18D11CF0803C08BF8D
:1015C00051F8043B07D185EA0205B5EB034F09D179
:1015D00050F8042BE6E75FEA0C4C2FD10B884FEA5A
:1015E00012452FE04FEA03434FEA12454FEA1343F7
:1015F00028E000BF02F0FF05B5EB136FA2F1013C3C
:101600002CEA020C0DD11CF0803C08BF51F8043BC1
:101610000AD185EA0205B5EB032F0AD150F8042B55
:10162000E8E74FEA13630DE012F0FF0F06D051F820
:10163000043B4FEA122523F07F4303E04FF0000004
:1016400020BC704705F0FF0203F0FF00012828BF0F
:10165000904204BF2D0A1B0AF4D0A2EB000020BC6C
:10166000704700BF20F0030110F00300C0F100003C
:1016700051F8043B00F1040C4FEACC0C6FF000026F
:101680001CBF22FA0CF213434FF0010C4CEA0C2C55
:101690004CEA0C4CA3EB0C0222EA030212EACC1235
:1016A00004BF51F8043B0430F4D0C2F1000102EA57
:1016B0000102B2FA82F2C2F11F0200EBD2007047BF
:1016C000F8B50E460025084C114607461A46304626
:1016D000256003F031F9431C00D0F8BD2368002BCE
:1016E000FBD03B60F8BD00BF703F002038B5002341
:1016F000064C05460846236000F028FF431C00D036
:1017000038BD2368002BFBD02B6038BD703F002014
:10171000F8B50E460025084C114607461A463046D5
:10172000256000F02BFF431C00D0F8BD2368002B80
:10173000FBD03B60F8BD00BF703F0020704700BF8A
:10174000704700BF9368013B002B936005DB136873
:10175000581C106019700846704710B49469A34271
:1017600008DB0A2906D01368581C10601970084657
:1017700010BC704710BC00F07DBB00BF9BB1F8B53A
:10178000D5180F460646013D541E01E0AC4208D074
:101790003A4614F8011F3046FFF7D4FF431CF5D139
:1017A000F8BD0020F8BD0020704700BF936810B559
:1017B000144613B95360184610BD00F03BFC0023DB
:1017C000C4E9013310BD00BF2DE9F04F9DB088463C
:1017D0001446CDE9020318B18369002B00F0C480E0
:1017E000A34B984500F0C680A24B984500F0D480EA
:1017F000A14B984504BF029BD3F80C80B8F80C307D
:101800001D0740F1BF80D8F81030002B00F0BA80DF
:101810003023002120228DF82A30237809918DF879
:101820002920964D0126002B00F09680252BA246FC
:1018300003D119E0252B00F0E1801AF8013F002BBD
:10184000F8D1BAEB040B00F0878022465B46414694
:101850000298FFF793FF01307ED0099B9AF8002091
:101860005B440993002A77D000234FF0FF320AF13E
:10187000010A0493CDE906338DF853301A9305928B
:1018800006E0CA46049B401B06FA00F01843049089
:10189000D146052219F8011B284600F0BDFDCB46B4
:1018A0000028EED1049BD80644BF20228DF8532097
:1018B000190748BF2B229AF8001048BF8DF8532013
:1018C0002A296DD0A1F13003092B00F2CB80079AB1
:1018D00002E0CA4609F1010999F8001002EB820200
:1018E00003EB4202A1F13003092BCB46F1D90AF1F7
:1018F000020907922E2960D0614C0322204600F095
:101900008BFD002877D04021001B049A01FA00F0DB
:101910000243049209F1010499F8003006221946A5
:1019200058488DF8283000F077FD002878D0564BC5
:10193000002B68D003AB00934246544B04A9029895
:10194000AFF3008007467A1C06D0099B3B440993FD
:101950002378002B7FF46AAFB8F80C305B0618D4FC
:1019600009981DB0BDE8F08FFFF77AFA404B984513
:101970007FF43AAF029BD3F80480B8F80C301D070F
:101980003FF541AF4146029800F0D4FA00283FF4F9
:101990003FAF4FF0FF30E4E7029BD3F808802DE71C
:1019A000039A116804320029039233DB07919AF8F5
:1019B00001100AF102092E299ED19BF801102A2953
:1019C00038D1039B2E4C1A680BF10200002A0592B5
:1019D000B7BF4FF0FF329BF802109BF80210059240
:1019E00004330BF10309032283462046039300F0DE
:1019F00013FD002887D14C46D9468DE7BAEB040B7E
:101A00003FF432AF21E7039B073323F0070308338A
:101A100003939AE7494243F0020307910493C6E710
:101A200003AB00934246194B04A9029800F0CAF890
:101A3000074688E70022A1F130000928059201D964
:101A400012E0D94699F8011002EB820200EB420243
:101A5000A1F13000092809F1010BF2D909F10209BD
:101A6000059249E7D34645E7CB4609F1010943E72B
:101A7000E08B0008C08B0008A08B00085C8D00087C
:101A8000648D0008688D0008000000007D170008C4
:101A900010B4044C13460A460146206810BCFFF7F8
:101AA00093BE00BF300000202DE9F0470C460969C5
:101AB000A56891468D42B8BF0D46156094F8431055
:101AC00006461F46DDF8208011B16A1CC9F80020C7
:101AD000236899065FD5D9F800200232C9F80020A2
:101AE000236813F0060F19461DD1E1688A1A002AEF
:101AF000D8BF194617DD002504F1190A05E0E3688F
:101B0000D9F800209B1AAB420CDD0123524639461E
:101B10003046C047013005F10105F0D14FF0FF30EC
:101B2000BDE8F087216894F84330003318BF0123E3
:101B30008A060AD53021E21882F8431094F845103D
:101B40005A1C224482F84310023304F143023946FE
:101B50003046C0470130E1D0D4E902202368D9F8EB
:101B6000005003F00603042B21691AD08A421FDDBE
:101B70004FF00009521A914400251A3401E04D45F6
:101B800016D00123224639463046C047013005F1C0
:101B90000105F4D1C2E713F0060F0CD1D9F80020EB
:101BA000A3E7401B8A4220EAE079E3DC0028E3DC7B
:101BB0000020BDE8F08794F84330003318BF0123BC
:101BC000C3E700BF2DE9F0430C46097E85B06E29BE
:101BD00006461746984604F1430C0C9D4AD00FD890
:101BE000632900F0FE8000F2BE8000294ED0582903
:101BF00040F0E08084F845102268DFF844E212E00B
:101C0000732900F0C5807AD86F2900F0DA80702936
:101C100040F0D080206840F0200222607823DFF876
:101C200024E284F845302B68191D1B6829601506CD
:101C300002D4500648BF9BB2D10744BF42F02002F5
:101C40002260002B6CD1D4E9001284F84330002AC2
:101C500021F020032360A2607DDB21F024012160BC
:101C60001021002A78D1654608294ED0ACEB050337
:101C700023610EE02B682268181D61692860150633
:101C80001B6802D4500600F1C68019600023654627
:101C90002361CDF800803B4603AA21463046FFF77A
:101CA00003FF013020D02A46236939463046C04719
:101CB000013019D0226803989207E36819D51A1ADF
:101CC000002A16DD002504F1190904E0E3680398F1
:101CD0001A1AAA420DDD01234A4639463046C0474A
:101CE000013005F10105F1D14FF0FF3005B0BDE83D
:101CF000F0839842B8BF184605B0BDE8F083752957
:101D00005FD0782956D1226888E72368DB07ADD5F4
:101D1000626823699A42A9DC3023013D2B70A5E754
:101D20001021002284F843206268002AA2602CDB84
:101D3000206820F004002060002B92D06546B3FBA1
:101D4000F1F201FB12331EF80300134605F8010DF2
:101D5000002AF4D188E710219EF8003004F14205F2
:101D600084F8423080E7642901D0692922D12068B3
:101D70002B68010603F1040245D51B682A60002B7D
:101D80004BDB0A21DFF8B8E0CEE7002BD6D1E3E742
:101D90002B686268191D29601D680021284600F023
:101DA0003BFB002845D0401B60602061002384F885
:101DB00043306EE7012384F84210236104F14205A9
:101DC000F4E720682B6810F0800F03F1040213D0B1
:101DD0001B682A606F290CBF08210A21DFF860E028
:101DE0009FE701222B68191D1B68296004F1420539
:101DF00084F842302261D9E7400653BF1B682A604D
:101E00001B882A60E6E7410653BF1B682A60B3F9C6
:101E100000302A60B3E7198038E72D2162685B4201
:101E2000002A84F84310A26005DB0A21DFF810E0E5
:101E30007FE76068B9E7DFF808E00A217EE700BFC6
:101E4000708D0008848D0008F8B50E460025084CFA
:101E5000114607461A463046256000F097FB431CA2
:101E600000D0F8BD2368002BFBD03B60F8BD00BF5D
:101E7000703F0020F8B50D461446064608B1836948
:101E800043B3254B9C422AD0244B9C4229D0244B5F
:101E90009C4208BFF468A269A389A2601A0722D5F0
:101EA000236903B322686169D31AEDB299422F46C0
:101EB00029DD0133A168501C0139A1602060157033
:101EC00062699A4216D0A389DB0701D50A2D11D089
:101ED0003846F8BDFEF7C4FF0F4B9C42D4D174685E
:101EE000D9E7B468D7E72146304600F023F838B97F
:101EF0002369D7E721463046FEF788FE0028E7D061
:101F00004FF0FF37E4E721463046FEF77FFE00281A
:101F1000F6D101232268CDE7E08B0008C08B0008D2
:101F2000A08B0008024B0A4601461868FFF7A2BFC3
:101F3000300000203B4B70B51D6806460C460DB1C5
:101F4000AB69DBB1384B9C421ED0384B9C424AD027
:101F5000374B9C4208BFEC68B4F90C2093B21907C8
:101F600018D5206908B313F001022CD00022636950
:101F7000A2605B42A36160B3002070BD2846FEF7FB
:101F80006FFF294B9C42E0D16C68B4F90C2093B2EE
:101F90001907E6D4DD063CD5580726D4206942F05F
:101FA0000803A3819BB20028DDD103F42072B2F5AF
:101FB000007FD8D03046214600F0E4F9A38920699B
:101FC00013F00102D2D1990758BF6269A2600028BC
:101FD000D2D1B4F90C301A06CFD543F04003A38117
:101FE0004FF0FF3070BDAC68B6E7616B51B104F1E2
:101FF0004403994204D03046FFF7E4F8B4F90C20CA
:10200000002363630023206922F02402C4E9000353
:10201000C5E7092342F0400233604FF0FF30A28150
:1020200070BD00BF30000020E08B0008C08B0008AE
:10203000A08B00089368002B00F0DB802DE9F04FA7
:10204000B1F90C300C469BB2190783B0824690461A
:102050002BD522694AB313F00202D8F8006033D0BE
:1020600000273D46D4F828B0216ADFF8B892C5B100
:102070004D452B463A4628BF4B465046D847002888
:1020800040F3BF80D8F8083007441B1A2D1AC8F84F
:102090000830002B00F0A980D4F828B0216A002D68
:1020A000E6D1D6E900750836E1E721465046FFF74C
:1020B00041FF002840F03081B4F90C30D8F80060BE
:1020C0009BB213F00202CBD113F001095ED14D4651
:1020D000A7682068002D55D09A0540F19C80AF423A
:1020E000BB4600F2DE8013F4906F2FD0D4E90417C2
:1020F00007EB4707A0EB010B07EBD777681C7F10B6
:102100005844B8423A4684BF07463A465B0540F118
:10211000D98011465046FFF7A9F8002800F0F68054
:102120005A4621690190FEF72BFFA289019B22F4F8
:10213000906242F08002A281A7EB0B0203EB0B003E
:102140006761AB462F4623612060A2605A4649462C
:10215000FEF78CFF2368A2685B44AB460025D71BC3
:10216000A7602360D8F80870D944A7EB0B07C8F81C
:102170000870002F39D0B4F90C30A7689BB22068E2
:10218000002DA9D1D6E900950836A3E7334691463C
:10219000104617464E469B46002F6ED0002876D03C
:1021A00020682169B9454B4628BF3B468842626991
:1021B00003D9A5681544AB4276DC9A4200F39880B7
:1021C0001346A56A3246216A5046A847051E18DD07
:1021D000B9EB05090FD00120D8F808302E445B1B5D
:1021E0007F1BC8F80830002BD6D1002003B0BDE813
:1021F000F08F0020704721465046FEF707FD00286B
:10220000EAD0B4F90C304FF0FF3043F04003A38123
:1022100003B0BDE8F08F2369834217D36269AA42F5
:1022200014D83F4BA76A9D4294BF2B466FF00043E2
:1022300093FBF2F3216A02FB03F350464A46B84788
:10224000B0F1000BDDDDA5EB0B058BE7AF4228BF3E
:102250002F4649463A46FEF709FFA3682268DB1B72
:102260003A44BB46A3602260002BECD12146504685
:10227000FEF7CCFC0028E6D0C3E70BF1080353F8C7
:10228000047C9B4653F8086C0833002FF7D03A467D
:102290000A21304600F0C0F838B30130A0EB06093F
:1022A0007EE72F46AB4651E731462A46FEF7DEFE73
:1022B000236821462B4423605046FEF7A7FC0028E4
:1022C00086D09EE7504600F0EDF8034600287FF4E4
:1022D00033AF21695046FEF775FF0C22B4F90C307C
:1022E000CAF8002023F080038DE707F1010957E7C2
:1022F0001A4631461D460193FEF7B8FEA1682268D2
:10230000019BC91A1344A160236061E70C22B4F950
:102310000C30CAF8002076E74FF0FF3066E700BFC8
:10232000FEFFFF7F00FCFF7F70B50C46B1F90E1079
:1023300090B0002916461D460FDA0022A3892A60B4
:102340001B0605D44FF480630020336010B070BDCD
:1023500040230020336010B070BD01AA00F0C8F81F
:102360000028EADB029B4FF4806203F47043A3F57C
:102370000053B3FA83F300205B092B60326010B086
:1023800070BD00BF8A890B46920706D5012103F173
:10239000470259611A601A61704770B582B001AB8B
:1023A0006A460C460546FFF7BFFF009906462846D9
:1023B000FEF75CFFB4F90C30D8B1164A0099AA6256
:1023C000019A43F08003A3812060C4E904011AB993
:1023D0003343A38102B070BD2846B4F90E1000F05B
:1023E0009BF8A0B1A38923F0030343F001031BB2C0
:1023F000EEE79A05EED4012123F0030304F147022E
:1024000043F00203A381616122602261E2E7B4F933
:102410000C30DDE7950C0008830770B4CDB23DD0D9
:10242000541E0AB30378AB421FD0431C05E014F1DD
:10243000FF3419D30278AA4217D013F0030F1846BD
:1024400003F10103F3D1032C11D84CB30378AB4251
:102450000BD00444431C02E00278AA4205D09C42FF
:10246000184603F10103F7D1002070BC70470646FF
:102470000A0292B22A4342EA02423368304653408B
:10248000A3F1013121EA030313F0803F06F10406B2
:10249000DCD1043C032C3046EFD8D6E71446D2E713
:1024A0002046E2E7E1B1F8B51446E2B106460D4632
:1024B00000F044F8A04202D32F463846F8BD21462A
:1024C0003046FEF7D3FE07460028F6D022462946BE
:1024D000FEF756FD30462946FEF774FE3846F8BD35
:1024E0001146FEF7C3BEFEF76DFE2746E5E700BFC7
:1024F00070B50D460023074C06461146284623605A
:1025000000F02CF8431C00D070BD2368002BFBD0DA
:10251000336070BD703F002038B50023064C05467F
:102520000846236000F022F8431C00D038BD236821
:10253000002BFBD02B6038BD703F002051F8043CCD
:10254000181F002BBCBF0B58C01870475822024BF5
:102550004FF0FF301A607047703F00205822024B46
:102560004FF0FF301A607047703F00205822024B36
:1025700000201A60704700BF703F00205822024BB5
:102580004FF0FF301A607047703F00205822024B16
:102590004FF0FF301A607047703F0020044A054931
:1025A0001368002B08BF0B4618441060184670478C
:1025B00058360020743F0020092BF8B528BF0923A6
:1025C0000C46084E1D46F35C9DF81810A34207D038
:1025D0008C4202D107461046B8470A2004F05CFC42
:1025E0007455F8BDB40000202DE9F04F85B01546B4
:1025F0008B468246FEF74EFA84B22046FDF71EFF58
:1026000002460B4650465946FDF7CAFD42F20F738B
:1026100015229C4206460F468DF80C2000F2AF8032
:1026200064234FF47A7EBD4ABD49092CA1FB040105
:10263000A2FB04C04FEA9111DFF8F4C24FEA501038
:102640000EFB114E03FB1040ACFB04831FFA8EFE01
:1026500080B2A2FB0E82ACFB008C4FEAD30303EBEB
:102660008303A4EB4303A4F10A089BB2C9B298BF49
:102670002C70B8F1590F0191C2F34712CCF3C70C7B
:102680005FFA83F900F246814FF00A0885F800C02E
:10269000002B00F0968085F801804FF0030885F844
:1026A0000290A4F57A71643CB4F5617F89B207D2D7
:1026B000002840F08C800B234FF002082A706B70CA
:1026C00042F22733994240F29F8000220023304695
:1026D0003946FEF785F900284DD10022914B30464E
:1026E0003946FDF715FFFEF7ADF90246DFF84492D3
:1026F000C31789FB0201C3EBA10303EB830330463D
:102700003946A2EB4306884B0022FDF701FFFEF796
:1027100099F9044689FB0032C317C3EBA20303EB0C
:1027200083030022A4EB43045046804B5946FDF737
:10273000EFFEFEF787F989FB0039C317C3EBA90940
:1027400009EB8909A0EB4900E4B2F6B2C0B205EB8F
:10275000080315F808203CB3002863D08DF80D60FD
:102760008DF80E408DF80F00039908F104085FFA08
:1027700088F81A711960404605B0BDE8F08F09224B
:102780009146944601920C240B200A239DF80410D4
:102790004FF007082970AA7085F804C085F80690E4
:1027A0006C70E8706B7190E70028D7D18DF80D60E0
:1027B000BDF80C1008F102085FFA88F89A701980C9
:1027C000D9E785F8018099464FF0020869E76BB1B7
:1027D000013808284FF00B0030D800232A7085F804
:1027E00003906870AB704FF0040869E70A23EB7040
:1027F00042F227330B2099422A7085F802C0687094
:102800004FF004083FF661AFBEF1000F21D0002A5F
:1028100053D1BCF1000F24D1B9F1000F33D14A4696
:10282000CC46B0E78DF80D60BDF80C1008F1030838
:102830005FFA88F8DA709C7019809CE70A234FF0E1
:1028400005082A7085F802C085F804906870EB705E
:1028500036E70C239DF804206B702A704FF00208B5
:1028600033E7B9F1000F1AD00C200A239DF80410A9
:10287000AA70297085F803C085F8059068702B71DF
:102880004FF0060821E70C239DF8042085F802C0CC
:102890002A7085F803906B704FF0040815E70C223E
:1028A0000A239DF8041085F80290297085F803C06A
:1028B0006A702B714FF0050807E7BCF1000F16D1C5
:1028C0009DF804100C200B232970AA70B9F1000F99
:1028D00008D085F804C085F805906870EB704FF05B
:1028E0000608F2E66870EB704FF00408EDE6B9F107
:1028F000000F7FF448AF0C240B200A239DF804102E
:10290000AA70297085F804C06C70E8706B714FF084
:102910000608DAE64FF00108C3E600BF1F85EB5159
:10292000D34D6210000024400000594000408F4009
:10293000CDCCCCCC6766666642F20F7290422DE930
:10294000F04148D8034664244FF47A776A486B4ACA
:10295000A0FB0356A2FB035276099209684D07FBC0
:10296000123704FB1636A5FB03C4BFB2B6B2A0FBF8
:10297000070CE408A5FB060504EB8404092BA3EB74
:102980004404A3F10A00A4B298BF0B705928D2B234
:10299000CCF3471CC5F3C7055FFA84FE00F2AA809A
:1029A0000A200D7054B34870032081F802E0A3F5AB
:1029B0007A78643BB3F5617F1FFA88F805D20EBBC5
:1029C0000B23022081F800C04B7042F22733984558
:1029D00033D9BDE8F08109229446154696460C2667
:1029E0000B240A2307200A7081F802C00D7181F8B8
:1029F00006E04E70CC704B71BDE8F0814870A64681
:102A00000220D4E764B1013E082E21D80B20002318
:102A1000487081F800C081F803E08B700420D4E78F
:102A20000A23CB7042F227330B209845487081F877
:102A300000C08D704FF00400CBD8A7B1BCF1000FDF
:102A400035D1B5B9BEF1000F22D1F4467546C6E7BF
:102A50000B240A23052081F800C08D7081F804E062
:102A60004C70CB70B1E70C230A704B700220BDE8AC
:102A7000F0810C200A230A70BEF1000F10D04870BC
:102A800081F802C0CD7081F805E00B710620A0E747
:102A90000C230A708D7081F803E04B70042098E7D6
:102AA000487081F802E0CD700B71052091E795B96F
:102AB0000C200B230A7081F802C0BEF1000F06D073
:102AC00048700D7181F805E0CB70062081E74870F1
:102AD000CB7004207DE7BEF1000F80D10B200C24C9
:102AE0000A23C8700A7081F802C00D714C704B71D6
:102AF00006206EE701205AE71F85EB51D34D621087
:102B0000CDCCCCCC2DE9F04F4FF461674FF0640C85
:102B100000220D46964B9749A3FB00384FEAD82870
:102B20005FFA88F6B4B2A1FB043107FB1808490923
:102B3000914F0CFB1141A7FB0403904889B2A0FB05
:102B400008C0DB08A7FB017C87B003EB830304927A
:102B5000092EDFF82CE2A4EB43034FEA5010CDE935
:102B600002220592A4F10A029BB2C0EB001798BFA3
:102B70008DF81060592AC5F800E0CCF3C70C5FFA55
:102B800083F9A8EB87083ED80A22002B40F0B680D4
:102B90004FF0060A0426A4F1640EBEF5617F8DF89D
:102BA00011208DF810C0CDF804A037464FF0020276
:102BB0004FF0030B35D302A980B20192FFF7BCFEA0
:102BC0001FFA88F3B8F1090FA3F10A0198BF8DF835
:102BD0000C8059290446019A38D86749A1FB0301A2
:102BE000C90801EB8100A3EB40039BB2C9B2002BE3
:102BF00060D10A234FF002088DF80D308DF80C10CB
:102C0000C146434626E003264FF0050A3746012217
:102C10004FF0020BCDF804A0A4F1640EBEF5617F65
:102C2000C9D2544AA2FB0424640900294ED10B23C3
:102C30004FF0060A04268DF810408DF81130CDF8BB
:102C400004A0374602224FF0030BB4E74FF001080F
:102C5000C1464346D5F8010004A945F80B00681C9D
:102C60000193FEF78DF9A819B0F800C027448678C3
:102C7000EA1925F807C002A996702246FEF780F9E6
:102C800053462344DEB2741EDAB2A4B22F1904EB09
:102C90000900121B394628440132FEF771F94246F9
:102CA000384603A9FEF76CF9019BF018C0B207B0D3
:102CB000BDE8F08F4FF003080A208DF80E308DF834
:102CC0000C108DF80D00C1464346C3E733B30139FC
:102CD000082937D80B2200234FF0080A06268DF862
:102CE00011208DF810408DF813908DF81230CDF82A
:102CF00004A0374604224FF0050B5CE74FF0070AAB
:102D000005268DF811208DF810C08DF81290CDF8A1
:102D100004A0374603224FF0040B7DE70B220A2361
:102D20004FF0080A06268DF811208DF810408DF816
:102D300012C08DF81330CDF804A0374604224FF0AE
:102D4000050B38E74FF0090A07260B210A23CDF8B7
:102D500004A0374605224FF0060B8DF810408DF881
:102D600012C08DF814908DF811108DF8133022E7F1
:102D7000C5B3A2911F85EB51CDCCCCCC8988888876
:102D80000E1112132DE9F0470D27102600248CB0E8
:102D9000149D99462F706E7090460E460794CDF89C
:102DA0000240CDF806400394CDE90844CDE90A4439
:102DB0000494ADF81440FDF731FB03AAFFF714FCAF
:102DC000B5F801202B18A3F8012003A902460746F5
:102DD000681CFEF7D5F807A93046FFF793FE41F2CD
:102DE0000F4616238246494603AA4046CDE90344CE
:102DF000CDE90544ADF800608DF80230FFF7F4FB33
:102E000006460CA830F82F2D731C90F802C00DEB6D
:102E1000030402372DF80320FFB284F802C003A98F
:102E20003246FEF7ADF8EB5D07EB0A042B5507A918
:102E3000E4B25246E8190336FEF7A2F8F6B22A5D6C
:102E4000AB191A55694628193246FEF799F8A019A8
:102E5000C0B20CB0BDE8F0872DE9F041CE18B6F550
:102E6000803FBDF8184012DA15461F4600EB0408F3
:102E7000091B1C444A1C20444146FEF781F83A468F
:102E800029464046FEF77CF83046BDE8F0814FF019
:102E9000FF36F9E72DE9F0414FF6FF74A14218D053
:102EA00099421D461746064610DBC3F101035A1826
:102EB00001F101080231881AA8EB020130443144C3
:102EC000FEF7D4F840467755BDE8F08101F10108DE
:102ED000F8E74FF0FF30F7E72DE9F04194468046E0
:102EE0000F4614461A4E06F1300E35460FCD754585
:102EF00020606160A260E36006F1100604F1100436
:102F0000F3D103CE3378206023720CF13900616075
:102F10004146FEF79BFA05460E4C0FCC2478AA607A
:102F200028602C746960EB60394605F11100FEF7EA
:102F30008DFA094B1B8803804046FEF793FB04463D
:102F40003846FEF78FFB20444C30C0B2BDE8F0811C
:102F5000048C0008408C0008548C00082DE9F84FC0
:102F60000546284C4FF40041204605F05BFD012842
:102F7000F8D100220824244B2449186082460860B6
:102F8000DFF890B01A600520214E1F46894603F0F5
:102F900083FF05F0010300223A60C9F80030DBF836
:102FA000048004F06FFC4FF49671A6FB0030800C97
:102FB00001FB00F1DBF80430A3EB08038B42F9D3EB
:102FC000C7F800A0DBF8048004F05CFC4FF49671B5
:102FD000A6FB0030800C01FB00F1DBF80430A3EB12
:102FE00008038B42F9D3013C6D0814F0FF0405F08F
:102FF0000103D0D101230549034A0B601360BDE8EA
:10300000F88F00BF000C0140B4812142B081214201
:1030100083DE1B43001000E0002860D00B462DE942
:10302000F04F83B00344009101932E4EDFF8C0802F
:103030002D4F009B13F8015B2C4C00934FF4004183
:10304000204605F0EFFC0128F8D103463060C8F8AF
:1030500000300023082433608146DFF898B0052053
:1030600003F01AFF05F0010300223260C8F80030B7
:10307000DBF804A004F006FC4FF49672A7FB0030C6
:10308000800C02FB00F2DBF80430A3EB0A0393424E
:10309000F9D3C6F80090DBF804A004F0F3FB4FF47A
:1030A0009672A7FB0030800C02FB00F2DBF80430C4
:1030B000A3EB0A039342F9D3013C6D0814F0FF041B
:1030C00005F00103D0D10123C8F800303360DDE9F9
:1030D00000329342AED1012003B0BDE8F08F012051
:1030E000704700BFB481214283DE1B43000C0140C6
:1030F000B0812142001000E010B5044613460A4694
:10310000084901F049FE2046FF2101F0E3FC20467A
:10311000FF2101F0DFFC2046BDE81040FF2101F057
:10312000D9BC00BF588C000810B504460A48FEF709
:1031300019F90A4B1B689868FDF798FD2046FF2196
:1031400001F0C8FC2046FF2101F0C4FC2046BDE888
:103150001040FF2101F0BEBC588C00083000002058
:1031600010B5044613460A46084901F015FE2046EC
:10317000FF2101F0AFFC2046FF2101F0ABFC20460F
:10318000BDE81040FF2101F0A5BC00BF608C000825
:103190000D4B70B49A69012042F004029A619A6959
:1031A0000A4B4FF4004600250324194683B002F071
:1031B000040201925860019A05481E60C3E9025456
:1031C00003B070BC05F022BB001002406436002042
:1031D000000801402DE9F84307260027234C244D21
:1031E000DFF890804FF40041204605F01BFC0028DA
:1031F000F8D0D5F8049004F045FB2822A8FB003055
:10320000800C02FB00F26B68A3EB09039342FAD334
:103210004FF40041204605F005FC012809D00123A8
:10322000B34027EA030716F1FF36DBD23846BDE884
:10323000F88301F0E3FF814606E001F0DFFFA0EB39
:103240000900B0F57A7F0BD84FF40041204605F015
:10325000E9FB0128F1D00123B3401F43FFB2E2E7AD
:10326000002701F0CBFF3846BDE8F8830008014095
:10327000001000E083DE1B432DE9F04103234FF4EF
:10328000004700254FF001083F4C064621463F48C5
:10329000E3602760A560C4F8048005F0B7FA2A4609
:1032A00039463A4805F0C4FB394D122003F0F4FDCD
:1032B00039464246354805F0BBFB6F6804F0E2FA38
:1032C0000D212A46334BA3FB0030800C01FB00F19B
:1032D0005368DB1B8B42FBD34FF4004703230025CD
:1032E00029492A48C4E901552760E36005F08EFAB0
:1032F0003946264805F096FB002841D105F1804566
:1033000005F584354FF40041284605F08BFB002875
:10331000F8D01E4D4FF40041284605F083FB0128EC
:10332000F8D0FFF757FF3070FFF754FF7070FFF7CA
:1033300051FFB070FFF74EFFF070FFF74BFF012712
:1033400003234FF40045002230710F490F48E3601A
:10335000C4E90057A26005F059FA29463A460B48DD
:1033600005F066FB73783078B5781844F378284414
:1033700035791844401BB0FA80F04009BDE8F0816F
:103380002846BDE8F08100BF6436002000080140F7
:10339000001000E083DE1B43002875D0836A70B5FF
:1033A0000446002B66D023689A68D0074DD4A26AE1
:1033B000D20644D4A26A5B4922F4885222F0020267
:1033C00042F002028B42A262E069626878D0D4E9DE
:1033D000021542EA4502B1F5807F42EA00026069C7
:1033E0005DD0012900F08D80012800F09880586898
:1033F0004D4920F46940586000209D6829401143E0
:103400009960D96A494D21F470010143D9629B68E2
:103410001D40AA423AD00120A36A23F0120343F0D0
:103420001003A362E36A0343E36270BDA36A43F03F
:103430001003A362E36A43F00103E362A36AA36A91
:10344000012043F01003A36270BD9A6822F00102CC
:103450009A6001F0D3FE054604E001F0CFFE401B68
:103460000228E3D823689A68D107F6D4A26AD20664
:10347000E5D49FE7C36280F8243000F0B5FA2368F2
:103480009A68D007E1D492E7012070470020E062FB
:10349000A36A23F0030343F00103A36270BD012874
:1034A00014D05868204920F4694040F48070586076
:1034B0009868014011439960216901390805A0E726
:1034C000B0F5402F08BF4FF4002080E70E46EDB95D
:1034D000A069451E46EA453545F400665D68124818
:1034E00025F4694535435D609D68B1F5807F00EA4C
:1034F000050040EA02009860DED00129DCD00020FF
:103500007FE70128CDD14FF48076E0E7A06A40F054
:103510002000A062E06A40F00100E062DEE70026E1
:10352000D5E700BF003C0140FDF7E1FFFE0E1FFFA5
:103530002DE9F043554B056883B09D427ED003F5DD
:1035400080639D427AD090F82430012B00F08D806A
:103550000023904601220193AB680F46D907044629
:1035600080F8242021D44A4B4A491B68AA68A1FB51
:10357000031342F001029B0CAA600193019B2BB143
:10358000019B013B0193019B002BF9D101F036FE19
:10359000814605E001F032FEA0EB0900022857D871
:1035A0002568AE6816F00106F4D0A36A3A4A23F4FF
:1035B000706323F0010343F480739542A36258D0F3
:1035C000A36A23F48013A3626B685A0505D5A36A26
:1035D00023F4405343F48053A36200266FF00202A9
:1035E000A36A206A13F4805318BFE36A2B4918BFFB
:1035F00023F00603E3622A4B84F82460C0E90A132F
:103600002849434601632A60A9683A4641F480711B
:10361000A96005F14C0104F09BFD304623689A68CF
:1036200002F46022B2F5602F9A680CBF42F4A00247
:1036300042F480129A6003B0BDE8F083134B5B68DC
:1036400013F4702F3FF47FAF012003B0BDE8F08387
:103650000120A36A84F8246043F01003A362E36AA4
:103660000343E36203B0BDE8F083022003B0BDE88A
:10367000F083064B5A6812F4702FA1D0A26A42F46C
:103680008012A2625B685B05A7D5A0E70024014019
:103690002000002083DE1B4300280140AD360008D7
:1036A000013700080D380008704700BF436A9A6A66
:1036B00012F0500F02D01B6A1B6B18479A6A1968E8
:1036C00042F4007210B59A628A6802F46022B2F580
:1036D000602F03D01846FFF7E7FF10BDDA68002A15
:1036E000F8D19A6A22F480729A629A6AD204F1D46A
:1036F0009A6A42F001029A62ECE700BF704700BF8D
:1037000008B5406AFFF7FAFF08BD00BF704700BF69
:10371000036810B55A680446900602D51A689107E6
:103720002AD45A68100602D51A68510706D45A6876
:10373000520602D51B68DB0733D410BDA26AD2063D
:1037400003D4A26A42F40052A2629A6802F4E042F0
:10375000B2F5E04F34D05A68500505D49A6802F4A7
:103760006022B2F5602F28D0204600F0EDF86FF00F
:103770000C0223681A60DAE7A26AD20603D4A26AAE
:1037800042F40072A2629A6802F46022B2F5602FDD
:1037900026D02046FFF788FF6FF0120223681A60D8
:1037A000BFE7A36A204643F48033A362FFF7AEFF6E
:1037B0006FF0010223681A6010BDE268002AD3D1BD
:1037C0005A6822F080025A60A36A23F48053A362ED
:1037D000A36AD905C8D4A36A43F00103A362C3E76F
:1037E000E268002AD5D15A6822F020025A60A36A02
:1037F00023F48073A362A36ADB04CAD4A36A43F0F0
:103800000103A362C5E700BF704700BF08B5436A64
:103810009A6A184642F040029A62DA6A42F004025A
:10382000DA62FFF7F1FF08BD002270B490F824308F
:1038300083B0012B01925FD001234D680468062DEF
:1038400080F824300A6805EB85034FF01F0625D960
:103850000C2D47D8233B256B9E4025EA060502FA2E
:1038600003F32B432363092A8B684FF0070602EB0F
:10387000420123D91E39E5688E408B4025EA0601B6
:103880000B43E360A2F11003012B22D90023002295
:1038900080F82420184603B070BC7047053B656B68
:1038A0009E4025EA060502FA03F32B43092A6363C7
:1038B0004FF007068B6802EB4201DBD825698E408A
:1038C0008B4025EA06010B432361A2F11003012B73
:1038D000DCD81A4B9C4214D0826A012342F02002A9
:1038E0008262D4E7413BE56A9E4025EA060502FA7A
:1038F00003F32B43E362B6E70223184603B070BC20
:103900007047A3681B02C1D4A368102A43F40003C4
:10391000A360BBD10A4B0B4A1B68A2FB03239B0C81
:1039200003EB83035B000193019B002BAED0019B53
:10393000013B0193019B002BF9D1A7E70024014033
:103940002000002083DE1B43704700BF00200D4A8B
:103950000D4BD16821F08071D160D16841F0807148
:10396000D1601A6822F001021A601A6842F001025E
:103970001A60586000BF00BF00BF5868B0FA80F0FE
:1039800040097047F0ED00E0001000E000224FF425
:10399000807010B501214FF46024114B84B0CDE943
:1039A000012203925A615A600E4A986018461A60C2
:1039B000DC61C3E90311FFF7EFFC70B905240122B4
:1039C000002301A90648CDE901420393FFF72CFF2C
:1039D00008B101F071FB04B010BD01F06DFBEDE723
:1039E0007436002000240140F0B500240268244B06
:1039F00087B09A42CDE90244CDE9044401D007B032
:103A0000F0BD2027032503F56C439A6902A942F40F
:103A100000729A619A69064602F400720092009A56
:103A20009A69184842F004029A619B69039503F071
:103A300004030193019B029704F0E8FE80214FF4F8
:103A400000724FF40063104D1048AF6128602846A3
:103A5000C5E90144EC61C5E903126B6104F030FB78
:103A600058B935620022062112206E6203F062FF0F
:103A7000122003F095FF07B0F0BD01F01DFBF0E749
:103A80000024014000080140A43600200800024044
:103A9000064B82B05A6942F001025A615B6903F039
:103AA00001030193019B02B0704700BF0010024068
:103AB000F0B5002789B0314B07979A69012442F08D
:103AC00020029A619A692E4E02F020020092009A1A
:103AD0009A6904A942F004029A619A69294802F09D
:103AE00004020192019A9A69032542F008029A6140
:103AF0009A6902F008020292029A9A6942F0100250
:103B00009A619B69CDE9056403F010030393039B5D
:103B1000049404F07BFE0B2304A91B480493CDE915
:103B20000544079504F072FE4FF40053174E04A9A4
:103B300030460493CDE90544079504F067FE4FF441
:103B4000805304A930460493CDE90544079504F059
:103B50005DFE4FF4004304A930460493CDE905749B
:103B600004F054FE4FF4807304A930460795CDE964
:103B70000544049304F04AFE09B0F0BD0010024071
:103B8000000021100008014000100140000C01401D
:103B900038B500250B480C4902880C4C0B880132C3
:103BA0000280627801330B80257022B9084803F047
:103BB00059FF01236370074B1868BDE8384002F0D5
:103BC000BFBA00BFC2020020B0020020C000002027
:103BD000E439002098390020F0B591B003AC3222CE
:103BE00020460021FDF7A4FA1A4B1B4E1868FCF77B
:103BF00025FC0022194BFCF7B5FD194A194B178813
:103C00001D8802460B46009439462846FFF7BAF84D
:103C10000023054619464FF0FF32306801F012FECE
:103C200021462846FFF7F8F9051C18BF01250E4C60
:103C30006378A5702BB10D4803F020FF0023A57811
:103C40006370002330681A461946257001F06EFB38
:103C500011B0F0BDF8360020CC02002000408F40AB
:103C6000F6360020A0390020C0000020E4390020F2
:103C70002DE9F04F294E85B0DFF8BCB0DFF8BCA0CD
:103C8000DFF8BC90264CDFF8BC80264F264D17E0AD
:103C9000039B198818895A68ABF80010997A5B88D9
:103CA000AAF80000C9F80020E17023710122002366
:103CB00000921E481A46FEF77FFC322003F0ECF813
:103CC00000234FF47A7203A9306801F0BBFD01288C
:103CD000DED000234FF0FF321946D8F8000001F083
:103CE000B1FD002239462846FFF706FA0022394680
:103CF0002846FFF701FA00220D492846FFF7FCF994
:103D00000023D8F8000019461A4601F00FFB094BB2
:103D1000186802F07BF9E178C8E700BFD002002004
:103D2000C0000020688C00083C3D0020D93B000802
:103D3000708C000898390020A0390020F636002049
:103D4000F8360020BC02002000B5074D074C83B0B8
:103D50000121284604F066FE00220146009201235C
:103D60002046FEF729FCF3E700080140913B0008DC
:103D700000232DE9F04F85B01D46019302F00AFBA8
:103D80000DF1100ADFF82CB2DFF82C92714CDFF83D
:103D90002C824AF8040D18E0A8FB05231B0903EB4D
:103DA0008303B5EB830600F09D8015F0030364D018
:103DB000694EA6FB0536760806EB4606AE1B29D0F3
:103DC00032215046013502F0DBFBA8FB0523DB085E
:103DD00003EB8303B5EB4303DED1604819464FF094
:103DE000FF32006801F02EFD019B012B00F09E8048
:103DF0006422DBF800305A4902FB03F25948120BE7
:103E0000FFF77AF90023554A194610681A4601F05F
:103E10008DFAC1E74FF46167334631464FF0FF3208
:103E2000D9F8000001F00EFD4F4B504A1B88504955
:103E3000A2FB0302D20A07FB12374A48FFF75CF9DC
:103E40004C4BBFB2A3FB07235B091A464A494548BE
:103E50000093FFF751F9009B4849C3EB0313A7EB0D
:103E600083039AB23F48FFF747F93346324631465B
:103E7000D9F8000001F05AFAA2E7414E19464FF076
:103E8000FF32D9F8000001F0DDFC32793D493548B8
:103E9000FFF732F93C4B3D491B683248DA1781FB8A
:103EA00003133B49C2EBA302FFF726F9394B3A490A
:103EB0001A882C48FFF720F96422337902FB03F2B9
:103EC00092B3B2F57A7FA8BF4FF47A72334925488E
:103ED000FFF712F90023D9F800001A46194601F03D
:103EE00025FA65E733464FF0FF323146D9F8000036
:103EF00001F0A8FC2A48FFF7BFF93346019032468B
:103F00003146D9F8000001F011FADBF80020254B0A
:103F100053F8041F9C420A44FAD1234BA3FB02230B
:103F20005B09CBF8003040E70122CFE71C4B642649
:103F30001F469A78DB781D4906FB02320948FFF7D5
:103F4000F3F83A787B781A4906FB02320548FFF706
:103F5000EBF84DE788390020ABAAAAAACC020020D2
:103F6000888C00083C3D0020F6360020C5B3A291A5
:103F7000AC8C000889888888B48C0008BC8C000848
:103F8000C0000020908C0008F83600206766666646
:103F9000988C0008A0390020688C0008A08C0008CC
:103FA0005C360020F83700201F85EB51788C000824
:103FB000808C000890390020BC020020CDCCCCCCF5
:103FC0002DE9F04FA3B002F0E5F9CD4F039035464F
:103FD00003E0322103A802F0D3FACA4B1B78012B6D
:103FE000F7D100234FF00006C748C64C19464FF0E2
:103FF000FF320068267001F025FCC44AC449B2F8BB
:1040000000C0C44A096812880191110A00918DF814
:104010003D1001998DF83CC04FEA1C2C8DF83BC037
:104020005FFA82FC0A128DF83F2045F2AA52002363
:10403000ADF8382003244FF00D020A201093CDE98B
:104040000733CDE90C33CDE91633CDF86230CDF826
:104050006630CDF86A30CDF86E30ADF87230CDF8FC
:104060007630CDF87A30CDF87E30CDF88230ADF8AC
:1040700086308DF83EC08DF840108DF83A408DF8AE
:1040800042008DF84520A44A0E2612794FF00F0EFB
:104090008DF844204FF010028DF848204FF01102A7
:1040A0008DF849204FF012028DF84A204FF0FF3270
:1040B0008DF846608DF84B208DF847E01A4600E0F9
:1040C0000133D8B2002B00F031810EA9C95C112850
:1040D00085EA0105EDB282EA0102F1D18DF84B20AB
:1040E0008E4A492113929DF8002040F2023E8DF83D
:1040F00053204FF00402072609240A2000238DF8DC
:1041000052204FF008028DF85A108DF84A508DF861
:1041100054C0ADF850E08DF855608DF856208DF8FC
:1041200057408DF85800194600E00133D8B2002BF3
:1041300000F0F88013AAD25C112882EA08085FFA1E
:1041400088F881EA0201F0D145F2AA500522002345
:104150008DF85F108DF85E80ADF860008DF86220FC
:10416000194600E00133D8B2002B00F0C48018AA31
:10417000D25C112882EA09095FFA89F981EA020111
:10418000F0D1012245F2AA50FF264FF0F60C002391
:104190008DF879208DF812207A78ADF87400ADF89A
:1041A00010008DF81420B878FA788DF815008DF885
:1041B000162038797A798DF817008DF81820B8799B
:1041C000FA793C788DF819008DF81A20387A7A7AC5
:1041D0008DF873108DF872908DF887608DF823C07C
:1041E00019468DF813408DF81B008DF81C2000E057
:1041F0000133D8B2002B7AD004AAD25C112882EA0B
:104200000A0A5FFA8AFA81EA0201F1D1022245F232
:10421000AA50F62400238DF82620FA7A8DF8231070
:104220008DF82820397B7A7B8DF829108DF82A208B
:10423000B97BFA7B8DF82B108DF82C20397C7A7C99
:10424000ADF824008DF82D10B87AB97C8DF82E20A9
:10425000FA7C8DF837408DF822A01C468DF8270097
:104260008DF82F108DF8302000E00133D9B2002BEB
:1042700039D009AAD25C112982EA0B0B5FFA8BFBB9
:1042800084EA0204F1D1142304A91A4624488DF8C3
:1042900036B08DF8374003F089FE142309A91A4679
:1042A0001F4803F083FE14230EA91A461C4803F08E
:1042B0007DFE142313A91A46194803F077FE142330
:1042C00018A91A46164803F071FE14231DA91A46B0
:1042D000134803F06BFE00230B4A194610681A4678
:1042E00001F024F875E648244FF04B0BBDE7482158
:1042F0004FF04B0A7CE748214FF04B0932E700BFF3
:104300000C000020F4360020CC020020F6360020FD
:10431000F8360020A0390020C0000020AA55040172
:10432000243A002048214FF04B08FEE648224B2556
:10433000C6E600BF30B5074D87B001AC0FCD0FC446
:104340002B68002101A8236002F08CFD024B18604D
:1043500007B030BD2C8B00088C39002070B51D4C87
:104360008CB002AD04F114060FCE0FC533680021E6
:1043700002A82B6002F076FD174B07AD28341860B9
:104380000FCC0FC52368002107A82B6002F06AFD3F
:1043900003221249124B0860CDE900231149002382
:1043A0008022114801F0AAFC0422104B1049CDE9EB
:1043B000002310480023802201F0A0FC06220E4BAF
:1043C0000E49CDE900230E480023802201F096FC1F
:1043D0000CB070BD2C8B0008EC3600209839002002
:1043E000F0360020C48C0008493D000894390020B4
:1043F000D08C000821460008E8360020E08C000838
:10440000713D00082DE9F04F584C85B00A2204F1A7
:104410000801574804F020FB21460023B4F8192076
:10442000544821F81C2FC4F81E30FDF73DF8002831
:1044300000F08F805049514D514800F0ADFC4FF4D1
:10444000FA7002F029FD04F138064E492846AB46C1
:1044500000F04CFBB14605F14F0704F13A0812E0B9
:104460003988BB78A8F800A03180B3704946FDF7C1
:104470001BF8F0B1514695F841204348FCF758FE2F
:10448000052002F009FD95F840304048002BF7D098
:104490004FF0000A94F8373085F840A00133DBB2C2
:1044A000012B84F83730DBD83949584600F01EFB21
:1044B000E6E703903749314800F018FB95F84120B2
:1044C00001253548039B0C3A63623449C360C0E957
:1044D0000133C0F80F300646FCF752FD012D4FF0B6
:1044E00002040CD023463A2213213046FEF7D2FCB8
:1044F000052D0BD001350334012DA4B2F2D10223D6
:104500003A2213213046FEF7C5FCF3E71121244A75
:10451000009102232048FEF79FFC13221E491448F5
:1045200004F0AEFA1F4A2049A2F11800FEF7D4FCAD
:104530004FF47A7002F0B0FC02F0DCFDFFF70EFFE2
:104540001A4B186801F0F4FC05B0BDE8F04F02F01A
:10455000F3BD04F1080604F12405A08684F83600B2
:104560000FCE0FC533682B70DCE700BFC000002002
:1045700000F4010800000020EC8C0008243A002020
:10458000F03B0020F88C0008703A00200800002062
:10459000108D0008008D0008E4000020773A00200C
:1045A0000C8D0008FC0000200C0000208C3900203D
:1045B000034AD2F8BC300133C2F8BC30704700BFA8
:1045C000C000002000232DE9F041114C114F124E84
:1045D000124D194620684FF0FF3201F033F93A4688
:1045E00031462846FEF7BCFDFA2002F015F83A469F
:1045F00031462846FEF7B4FDFA2002F00DF80023FC
:1046000020681A46BDE8F041194600F08FBE00BF91
:10461000BC020020FC0000201C8D00083C3D002056
:104620002C4BF0B59A6983B042F004029A619B6901
:10463000012703F004030193019BFFF729FAFFF719
:10464000A5F9642224492548FEF772FF244CFFF7A0
:10465000B9FF244DFEF79CFD234E1DE094F8C030B9
:10466000052B31D8013384F8C030227994F8C13059
:104670009A421FD263781BBB23790BBB94F8C220EC
:104680000A2A95BF013284F8C23084F8C22037600C
:104690004FF47A7001F0C0FF0121284604F0CCF9F4
:1046A0002378002BDAD184F8C030227994F8C13015
:1046B0009A42DFD32020FEF751FC6378002BDBD039
:1046C000002384F8C230E3E70023237084F8C0306D
:1046D0003760CAE700100240FC3700207436002023
:1046E000C000002000100140A081214230B500230D
:1046F00001214FF4803202254FF4E01491B006A856
:10470000089301930993CDE90B33CDE90233CDE949
:10471000043306910A910792CDE90D520F9402F0ED
:10472000E5FD90B9022200230F254FF4806401A813
:104730001146CDE901520393CDE9044302F0BEFFD7
:1047400008B100F0B9FC11B030BD00F0B5FCE9E7EC
:1047500030B500224FF0804547248021134B87B0AD
:10476000D8601846C3E9005499619A601A6103F051
:1047700023F9B8B94FF4805306A941F8103D0B480E
:1047800003F092F958B9002369460848CDE900338F
:1047900003F0FEFA08B100F08FFC07B030BD00F066
:1047A0008BFCF0E700F088FCE4E700BFE439002070
:1047B00000B5036883B0B3F1804F18D0174A934215
:1047C00002D003B05DF804FB0221154B0322D86927
:1047D0000843D861DB691D200B400193019B03F066
:1047E000A9F81D2003B05DF804EB03F0D9B803F578
:1047F0000433D869042240F00100D861DB69052147
:1048000003F0010300931C20009B03F093F81C208D
:1048100003B05DF804EB03F0C3B800BF0004004030
:1048200000100240002130B503683A4A3A4C85B086
:104830009342CDE9021459D0B3F1804F01D005B0B5
:1048400030BDA389039A591CB3F57A7FA1811ED884
:1048500053883BBB41F28831E3898B4250D8013306
:10486000E3812E4B197819B1002119702182118131
:10487000A38A312B1DD80133A382E38A642B3BD951
:1048800000210122264BE1821A7005B030BD0020C4
:104890002449A0810B8808805380002BDAD013892B
:1048A000013313810023204993720B70A38A312BAB
:1048B000E1D90023218A1D48118005781C4801FB9D
:1048C00005F100685160A3820028D6D002AA03A98E
:1048D00000F020FF029B002BCFD04FF08052154BF1
:1048E0001A60BFF34F8FBFF36F8FC6E7019000F0E0
:1048F00079FC019803689FE70133E38205B030BD7E
:104900000021238AE1810BB1012393720123A37457
:10491000A7E700BF00080040A0020020C20000205E
:10492000F4360020C2020020C0000020C80200208F
:10493000D002002004ED00E010B51446FF2392B22F
:10494000044803F033FB044B1B689868FCF78EF9AE
:10495000204610BD3C3D00203000002038B500242A
:104960000C25C0E900124561C0E902440461C0E9B8
:10497000064403F037FA00B938BDBDE8384000F00E
:104980009BBB00BF70B5002403684C4A8AB09342B9
:104990000546CDE90644CDE9084407D0484A93428C
:1049A00066D0484A93423BD00AB070BD4FF40071C4
:1049B00002200326444B9A6942F480429A619A6924
:1049C00002F480420192019A9A6942F004029A61CB
:1049D0009B69069103F00403029306A907903B48E4
:1049E000029B099603F012FF4FF4806306A9374833
:1049F0000693CDE9074403F009FF2520224605214F
:104A000002F098FF252002F0CBFF2B68DA6842F015
:104A10002002DA60DA6842F01002DA600AB070BD93
:104A20004FF4806102200326274BDA6942F480228A
:104A3000DA61DA6902F480220492049A9A6942F0F7
:104A400008029A619B69069103F00803059306A981
:104A500007901F48059B099603F0D8FE4FF40063AA
:104A600006A91B48CDE90744069303F0CFFECCE727
:104A7000042102200326144BDA6942F40032DA6181
:104A8000DB69069103F40033039306A907900F48EE
:104A9000039B099603F0BAFE082306A90B48069368
:104AA000CDE9074403F0B2FE22460521262002F09C
:104AB00041FF262002F074FFA7E700BF0038014045
:104AC000004400400048004000100240000801403F
:104AD000000C01406FF040030268106813605160E1
:104AE00013685B06FCD50020704700BF10B4013985
:104AF000026811F8010F13686FF0400448B11460A8
:104B00000B78536013685B06FCD511F8010F002881
:104B1000F5D110BC704700BF2DE9F04F0D7883B080
:104B200083460346002D00F029814FF0300E4FF0F0
:104B30000D08DFF860C2934F07E00446084621469F
:104B40001D7001334578002D58D00A2D01F1010068
:104B500000F0B980252DF0D14C78633C152C00F283
:104B6000B080DFE814F0A8005F00AE000D01AE00D9
:104B7000AE00AE00AE00AE00AE00AE00AE00AE00C5
:104B8000AE00AE00AE005200AE00AE00AE00AE0011
:104B900016004FF0780514685D70250B02F10402D1
:104BA00083F800E040F0C8809D1CC4F303296E1C0C
:104BB000AB1CB9F1000F08D0AA46E14419F8019CDA
:104BC00035460AF8039B1E465346C4F30319B9F150
:104BD000000F00F0BA80E14419F8019C14F00F04B2
:104BE0001CBF644414F8014C85F8009014BF347065
:104BF00086F800E045780231002DA6D1A3EB0B002A
:104C000000221A7003B0BDE8F08F156802312C78CD
:104C10000432002C96D003F8014B15F8014F002CFC
:104C2000F9D18FE7146804320092574AA2FB042698
:104C3000B609A7FB0652554DD208A5FB049502EB19
:104C400082026D0BA6EB420203F1010944D0013D43
:104C50000E2D94BF1CF8056030261D4605F8026B2A
:104C6000002A00F083804A4B6244A3FB0436760995
:104C7000A7FB06A3019312F8013C019A89F80030C2
:104C8000D20802EB8202B6EB420205F1010367D0C3
:104C9000A7FB04694FEAD909A7FB09A66244F608F5
:104CA00012F8012C06EB8606B9EB46062A7052D0A4
:104CB0001D4601332AE0146802311C7004320133AE
:104CC00040E702313EE71C46064604F8028B0846E0
:104CD0005D703146234635E7D2BB1D464B462C4A14
:104CE000A2FB04267609A7FB0692D20802EB8202F9
:104CF000B6EB4202CCD1A7FB0462D208A7FB029616
:104D0000F60806EB8606B2EB460605D0664416F8B2
:104D1000012C2A701D460133A7FB0462D20802EB66
:104D20008202B4EB420201F1020123D0624412F884
:104D3000014C009A2C7005E76E1E0E2E8CBF30269B
:104D40001CF80660DD1C9E702FE74FF0300945E728
:104D50004D46994687E785F801E0EB1C0235DBE715
:104D60002A4602F802EB1D461346C4E783F801E029
:104D70000333B4E785F800E0009AE3E628463FE70E
:104D8000FFDE00BFCDCCCCCCD34D62105917B7D1CC
:104D90001F85EB51688B00080EB430B5A2B025AB6F
:104DA00053F8041B05461A4602A80193FFF7B4FE08
:104DB0009DF8083053B102ACFF232146012228465A
:104DC00003F0F4F814F8013F002BF5D122B0BDE850
:104DD000304003B0704700BF704700BFFEE700BF20
:104DE000FEE700BFFEE700BFFEE700BF704700BF61
:104DF000164970B40B681A6812F0200214D11868B2
:104E0000C0060CD50124124D91F842001E682A708C
:104E10005D6881F8404081F8410081F842206FF0E0
:104E2000400270BC1A607047094C91F8422020780B
:104E30005D68013020708818013281F842206FF0DF
:104E4000400280F84C5070BC1A607047F03B002064
:104E5000C0020020164970B40B681A6812F02002D4
:104E600014D11868C0060CD50124124D91F84200E7
:104E70001E682A705D6881F8404081F8410081F821
:104E800042206FF0400270BC1A607047094C91F8E4
:104E9000422020785D68013020708818013281F846
:104EA00042206FF0400280F84C5070BC1A6070478E
:104EB000243A0020C0020020164970B40B681A681A
:104EC00012F0200214D11868C0060CD50124124D2E
:104ED00091F842001E682A705D6881F8404081F8B0
:104EE000410081F842206FF0400270BC1A607047A8
:104EF000094C91F8422020785D68013020708818B4
:104F0000013281F842206FF0400280F84C5070BCB2
:104F10001A607047243A0020C0020020014802F0C5
:104F20008DBE00BFC83E0020014802F087BE00BF12
:104F3000E4390020014802F081BE00BFA4390020FE
:104F4000012003F07DBD00BF4FF4004003F078BDA9
:104F5000B0F5004F00D0704700F1804000220121E1
:104F600000F5104003F064BD014803F035B900BFFF
:104F7000A43600200148FEF7CBBB00BF74360020EA
:104F8000114B10B5986982B040F0010098619C699E
:104F9000002204F001040094009CDC690F2144F01D
:104FA0008054DC61DB696FF0010003F080530193F2
:104FB000019B02F0BFFC054A536823F0E06343F015
:104FC0000073536002B010BD0010024000000140A9
:104FD00030B5014689B000221E2002F0ABFC1E2035
:104FE00002F0DEFC154B01A9DA6903A842F00402C5
:104FF000DA61DB69124D03F004030293029B02F0B5
:1050000067FC02F045FC002240F2E7314300A5FBBB
:1050100003030C4C0C4D9B0C013B2046C4E9005390
:10502000C4E90312A26002F0C7FC10B1012009B06C
:1050300030BD204602F016FD09B030BD0010024020
:1050400083DE1B43C83E00200008004008B5FEF781
:105050002FFD4FF4E13210491048FFF77FFC4FF469
:10506000E1320F490F48FFF779FC4FF416520E4911
:105070000E48FFF773FC40F2E730FFF769FBFEF7DD
:1050800065FC012000F010FB094B1860012000F0C6
:105090000BFB084B586008BD00380140F03B002076
:1050A00000440040243A0020004800403C3D0020DD
:1050B000BC020020C8020020704700BF38B5134C66
:1050C000134D204629460022FEF716F820460022FE
:1050D0001049FEF711F8204600220F49FEF70CF8A0
:1050E000204600220D49FEF707F8204600220C4911
:1050F000FEF702F8204600220A49FDF7FDFF294687
:105100002046BDE838400022FDF7F6BF3C3D0020B8
:10511000988C0008688C0008AC8C0008B48C0008DF
:10512000BC8C0008908C000808B500F049F8FFF727
:10513000DDFAFFF78BFFFFF7FDF8002204210A20BC
:1051400000F0ACF8072200210525064B064C1A702A
:10515000064A257011609860FFF7B0FF01F07CFEF1
:10516000FEE700BFC802002081010020A08121428B
:1051700030B44FF41F054FF000640E4B0E4A19680F
:105180000E4841F00101196059680A405A601A68D6
:1051900022F0847222F480321A601A6822F480228B
:1051A0001A605A6822F4FE025A609D60846030BC26
:1051B000704700BF001002400000FFF800ED00E063
:1051C000074A08B51368032043F01003136002F088
:1051D0009FFB0020FFF7FCFEFFF7D2FE002008BD7A
:1051E00000200240034A044B11681B780B441360F3
:1051F000704700BF083F002024000020014B1868C2
:10520000704700BF083F00204FF0FF31002200F13F
:1052100008038160C0E90023C0E90333704700BF81
:1052200000230361704700BFD0E9002310B49C68DD
:1052300001328C609C684B606160996010BC0861B1
:105240000260704730B40D686B1C11D000F1080289
:1052500000E01A4653681C68AC42FAD904684B60F7
:10526000013499608A6051600861046030BC704705
:1052700002695368F2E700BF026910B4D0E9013156
:1052800054689960816884424B6008BF5160002176
:1052900013680161581E106010BC7047F8B540B922
:1052A0004FF0500383F31188BFF36F8FBFF34F8F1D
:1052B000FEE7074615460E4651B101FB00F050309F
:1052C00001F018FE044668B300F15003036005E0E6
:1052D000502001F00FFE044620B32460C4E90F768D
:1052E00001F008FFD4E90F32FF26002003FB02F390
:1052F00021689A1A0A440B44A063E260C4E90131B0
:1053000004F1100084F8446084F84560FFF77CFFE6
:1053100004F12400FFF778FF01F00EFF84F84C50F1
:105320002046F8BD00242046F8BD00BF2DE9F04F0F
:1053300085B00192002800F02281002900F012813E
:10534000022B0BD1C26B012A08D04FF0500383F31C
:105350001188BFF36F8FBFF34F8FFEE704461E46E1
:105360000F4601F023FB002840F0F980019B43B178
:105370004FF0500383F31188BFF36F8FBFF34F8F4C
:10538000FEE79A4601F0B6FEA26BE36B4FF0000811
:105390009A42DFF8109375D3022E00F0F980019D38
:1053A000002D00F04C81BAF1000F02D102A801F0EB
:1053B00099FA01F0C1FE00F0E3FF01F09BFE94F8C2
:1053C0004430FF2B08BF84F8448094F84530FF2B0D
:1053D00008BF84F8458001F0AFFE01A902A801F0E2
:1053E00095FA002840F0118101F084FEA26BE36B76
:1053F0009A4267D001F0A0FE01F07CFE94F845507F
:105400006DB2002D11DD636A7BB104F1240A01E065
:10541000636A53B1504601F029FA08B101F0BEFAAF
:10542000013DEBB25DB2002BF2D1FF2384F8453091
:1054300001F082FE01F05EFE94F844506DB2002D42
:1054400011DD23697BB104F1100A01E0236953B136
:10545000504601F00BFA08B101F0A0FA013DEBB2A1
:105460005DB2002BF2D1FF2384F8443001F064FEDA
:1054700001F014F801F03EFEA26BE36B4FF0010A5D
:105480009A4289D2226CA56B002A00F08680002EF9
:1054900000F0A1803946E068FBF772FD236CE268FA
:1054A0005B4221681A448A42E26002D26268134475
:1054B000E360022E636A00F0C6800135A563002B0D
:1054C00071D09BE004F1100A01F036FE50460199BC
:1054D00001F038F901F00EFE94F845506DB2002D40
:1054E00011DD636A7BB104F1240B01E0636A53B1FF
:1054F000584601F0BBF908B101F050FA013DEBB29A
:105500005DB2002BF2D1FF2384F8453001F014FE88
:1055100001F0F0FD94F844506DB2002D0ADC0CE06F
:10552000504601F0A3F908B101F038FA013DEBB2A1
:105530005DB213B12369002BF2D1FF2384F844300C
:1055400001F0FAFD00F0AAFF002893D14FF080533C
:10555000C9F80030BFF34F8FBFF36F8F8AE74FF06A
:10556000000A0FE7026C002A3FF4EAAE4FF0500346
:1055700083F31188BFF36F8FBFF34F8FFEE74FF0B8
:10558000500383F31188BFF36F8FBFF34F8FFEE794
:10559000226CA56B002A7FF47DAF2668013546B1E9
:1055A000636AA56353BB01F0C7FD012005B0BDE8E8
:1055B000F08F606801F050FA636A6660A563EBB92A
:1055C0000028F0D04FF08052364B1A60BFF34F8F57
:1055D000BFF36F8FE7E73946A068FBF7D1FCA368FC
:1055E000216C62680B44934205F10105A360D7D397
:1055F0002268636AA563A260002BD4D004F1240062
:1056000001F034F90028DDD1CDE701F073FD94F805
:1056100045506DB2002D1DDD636ADBB104F1240637
:1056200005E0013DEBB25DB2A3B1636A93B13046D0
:1056300001F01CF90028F4D001F0B0F9F1E701F015
:105640007BFD2846B2E7002DABD10122A263002BDF
:10565000A9D0D3E7FF2384F8453001F06DFD01F0B8
:1056600049FD94F844506DB2002D12DD236983B1D9
:1056700004F1100605E0013DEBB25DB24BB12369C8
:105680003BB1304601F0F2F80028F4D001F086F981
:10569000F1E7FF2384F8443001F04EFD00F0FEFEF8
:1056A000002083E704ED00E0F8B50646502001F045
:1056B00021FC044660B300250123FF272060C0E9D8
:1056C0000F3501F017FDD4E90F3203FB02F3216817
:1056D0009A1A0A440B44C4E90131E260A56304F15B
:1056E000100084F8447084F84570FFF78DFD04F1D4
:1056F0002400FFF789FD01F01FFDC4E90055E560B6
:1057000084F84C602B462A4629462046FFF70EFEB9
:105710002046F8BD002837D02DE9F04741B3022BD1
:105720000BD1C46B012C08D04FF0500383F31188C8
:10573000BFF36F8FBFF34F8FFEE704461F469146BE
:105740008A4601F0A7FDEFF311884FF0500383F371
:105750001188BFF36F8FBFF34F8FA26BE36B9A4239
:105760001BD3022F34D0002088F31188BDE8F087C6
:10577000046C002CD3D04FF0500383F31188BFF397
:105780006F8FBFF34F8FFEE74FF0500383F3118805
:10579000BFF36F8FBFF34F8FFEE794F84550226C35
:1057A0006DB2A66BDAB16FB35146E068FBF7E8FB68
:1057B000236CE2685B4221681A448A42E26002D2AA
:1057C00062681344E360022F0FD176B1013E0CE012
:1057D00094F84550226C6DB2A66B002AE4D127687C
:1057E0001FB9606801F038F9676001366B1CA66369
:1057F00016D001202B185BB284F8453088F311884D
:10580000BDE8F0875146A068FBF7BAFBA368216C9E
:1058100062680B449342A360E7D32368A360E4E784
:10582000636A0BB901209FE704F1240001F01EF820
:105830000028F7D0B9F1000FF4D00120C9F800001A
:1058400092E700BF2DE9F04F85B00192002800F0EB
:105850005981002900F04981044698460F4601F01D
:10586000A5F850B9019B43B14FF0500383F3118861
:10587000BFF36F8FBFF34F8FFEE701F03BFCA56BCB
:10588000002D40F0BA80019B002B6AD002A8AA46E6
:1058900001F028F8DFF8B8B204F1240601F04CFC5E
:1058A00000F06EFD01F026FC94F84430FF2B08BF99
:1058B00084F844A094F84530FF2B08BF84F845A035
:1058C00001F03AFC01A902A801F020F800284ED10D
:1058D00001F010FCA36B002B00F0BA8001F02CFC4F
:1058E00001F008FC94F845506DB2002D0ADC0CE084
:1058F000304600F0BBFF08B101F050F8013DEBB2BB
:105900005DB213B1636A002BF2D1FF2384F84530F6
:1059100001F012FC01F0EEFB94F844506DB2002D42
:1059200010DD236973B104F11009484600F09EFFB1
:1059300008B101F033F8013DEBB25DB213B1236958
:10594000002BF2D1FF2384F8443001F0F5FB00F086
:10595000A5FD01F0CFFBA56B002D4ED1019B002BC7
:105960009CD101F0E9FB002005B0BDE8F08F01F00B
:10597000C1FB94F845506DB2002D0ADC0CE03046B6
:1059800000F074FF08B101F009F8013DEBB25DB21F
:1059900013B1636A002BF2D1FF2384F8453001F084
:1059A000CBFB01F0A7FB94F844506DB2002D11DD44
:1059B00023697BB104F1100901E0236953B1484622
:1059C00000F054FF08B100F0E9FF013DEBB25DB219
:1059D000002BF2D1FF2384F8443001F0ADFB00F03E
:1059E0005DFD01F087FBA36B002BBAD001F0A4FB97
:1059F00001F080FBA56B002DB0D0226CE6685AB197
:105A00006168B3188B42E36028BF2368384628BF1B
:105A1000E360E168FBF7B4FAB8F1000F40F083806F
:105A20002368013DA563002B00F086802369002BCD
:105A30007CD004F1100000F019FF002876D04FF060
:105A40008052434B1A60BFF34F8FBFF36F8F6DE0EF
:105A500001F072FB2368002B5DD00199304600F005
:105A600071FE01F047FB94F845506DB2002D0ADC41
:105A70000CE0304600F0FAFE08B100F08FFF013D67
:105A8000EBB25DB213B1636A002BF2D1FF2384F84D
:105A9000453001F051FB01F02DFB94F844506DB2FC
:105AA000002D10DD236973B104F11009484600F0A0
:105AB000DDFE08B100F072FF013DEBB25DB213B143
:105AC0002369002BF2D1FF2384F8443001F034FB2A
:105AD00000F0E4FC00288BD14FF08053CBF800306D
