:020000040800F2
:1000000000500020F1B10008BD5B0008C95B00088A
:10001000CF5B0008D55B0008DB5B00080000000038
:1000200000000000000000000000000061890008DE
:10003000E15B000800000000118B0008598B0008EC
:1000400039B2000839B2000839B2000839B20008E4
:1000500039B2000839B20008095D000839B2000859
:1000600039B2000839B2000839B20008515D000801
:1000700039B2000839B2000839B2000839B20008B4
:1000800039B2000839B20008655D000839B20008CD
:1000900039B2000839B2000839B2000839B2000894
:1000A00039B2000839B2000839B2000839B2000884
:1000B000E15C0008F55C0008CD5C000839B200087E
:1000C00039B2000839B2000839B2000839B2000864
:1000D00039B20008915C0008A55C0008B95C000812
:1000E000175D000839B2000839B2000800000000AE
:1000F0000000000000000000000000000000000000
:0C01000000000000000000005FF808F1A3
:100110000348044B834202D0034B03B11847704796
:1001200094000020940000200000000005480649CB
:10013000091A891001EBD171491002D0034B03B1A8
:100140001847704794000020940000200000000031
:1001500010B5064C237843B9FFF7DAFF044B13B10F
:100160000448AFF300800123237010BD98000020E5
:1001700000000000ECB4000808B5044B1BB10449B2
:100180000448AFF30080BDE80840CFE7000000005E
:100190009C000020ECB4000881F0004102E000BFA8
:1001A00083F0004330B54FEA41044FEA430594EA37
:1001B000050F08BF90EA020F1FBF54EA000C55EA72
:1001C000020C7FEA645C7FEA655C00F0E2804FEA43
:1001D0005454D4EB5555B8BF6D420CDD2C4480EA25
:1001E000020281EA030382EA000083EA010180EA55
:1001F000020281EA0303362D88BF30BD11F0004FA3
:100200004FEA01314FF4801C4CEA113102D04042D8
:1002100061EB410113F0004F4FEA03334CEA133313
:1002200002D0524263EB430394EA050F00F0A7802B
:10023000A4F10104D5F1200E0DDB02FA0EFC22FA26
:1002400005F2801841F1000103FA0EF2801843FA1A
:1002500005F359410EE0A5F120050EF1200E012A0B
:1002600003FA0EFC28BF4CF0020C43FA05F3C01849
:1002700051EBE37101F0004507D54FF0000EDCF1C2
:10028000000C7EEB00006EEB0101B1F5801F1BD36B
:10029000B1F5001F0CD349085FEA30004FEA3C0C6F
:1002A00004F101044FEA445212F5800F80F09A8065
:1002B000BCF1004F08BF5FEA500C50F1000041EB69
:1002C000045141EA050130BD5FEA4C0C404141EB6D
:1002D000010111F4801FA4F10104E9D191F0000F94
:1002E00004BF01460020B1FA81F308BF2033A3F117
:1002F0000B03B3F120020CDA0C3208DD02F1140C0E
:10030000C2F10C0201FA0CF021FA02F10CE002F148
:100310001402D8BFC2F1200C01FA02F120FA0CFC41
:10032000DCBF41EA0C019040E41AA2BF01EB04518A
:10033000294330BD6FEA04041F3C1CDA0C340EDC88
:1003400004F11404C4F1200220FA04F001FA02F3CB
:1003500040EA030021FA04F345EA030130BDC4F189
:100360000C04C4F1200220FA02F001FA04F340EA7E
:100370000300294630BD21FA04F0294630BD94F02F
:10038000000F83F4801306BF81F480110134013D16
:100390004EE77FEA645C18BF7FEA655C29D094EA87
:1003A000050F08BF90EA020F05D054EA000C04BF05
:1003B0001946104630BD91EA030F1EBF00210020F0
:1003C00030BD5FEA545C05D14000494128BF41F08F
:1003D000004130BD14F580043CBF01F5801130BDF3
:1003E00001F0004545F0FE4141F470014FF000007E
:1003F00030BD7FEA645C1ABF194610467FEA655C2F
:100400001CBF0B46024650EA013406BF52EA0335D0
:1004100091EA030F41F4002130BD00BF90F0000FBE
:1004200004BF0021704730B54FF4806404F13204FA
:100430004FF000054FF0000150E700BF90F0000FB3
:1004400004BF0021704730B54FF4806404F13204DA
:1004500010F0004548BF40424FF000013EE700BFAA
:1004600042004FEAE2014FEA31014FEA02701FBF3A
:1004700012F07F4393F07F4F81F06051704732F06C
:100480007F4208BF704793F07F4F04BF41F40021C3
:10049000704730B54FF4607401F0004521F0004121
:1004A0001CE700BF50EA010208BF704730B54FF0AB
:1004B00000050AE050EA010208BF704730B511F0AC
:1004C000004502D5404261EB41014FF4806404F1E4
:1004D00032045FEA915C3FF4D8AE4FF003025FEA6A
:1004E000DC0C18BF03325FEADC0C18BF033202EBEE
:1004F000DC02C2F1200300FA03FC20FA02F001FA48
:1005000003FE40EA0E0021FA02F11444BDE600BFEA
:1005100070B54FF0FF0C4CF4E06C1CEA11541DBF99
:100520001CEA135594EA0C0F95EA0C0F00F0DEF864
:100530002C4481EA030621EA4C5123EA4C5350EA49
:10054000013518BF52EA033541F4801143F480139A
:1005500038D0A0FB02CE4FF00005E1FB02E506F02B
:100560000042E0FB03E54FF00006E1FB03569CF080
:10057000000F18BF4EF0010EA4F1FF04B6F5007F86
:1005800064F5407404D25FEA4E0E6D4146EB0606F8
:1005900042EAC62141EA55514FEAC52040EA5E5081
:1005A0004FEACE2EB4F1FD0C88BFBCF5E06F1ED82B
:1005B000BEF1004F08BF5FEA500E50F1000041EB62
:1005C000045170BD06F0004646EA010140EA02000F
:1005D00081EA0301B4EB5C04C2BFD4EB0C0541EA31
:1005E000045170BD41F480114FF0000E013C00F346
:1005F000AB8014F1360FDEBF002001F0004170BD6A
:10060000C4F10004203C35DA0C341BDC04F1140482
:10061000C4F1200500FA05F320FA04F001FA05F20E
:1006200040EA020001F0004221F0004110EBD370DB
:1006300021FA04F642EB06015EEA430E08BF20EA07
:10064000D37070BDC4F10C04C4F1200500FA04F3AA
:1006500020FA05F001FA04F240EA020001F000413C
:1006600010EBD37041F100015EEA430E08BF20EAAF
:10067000D37070BDC4F1200500FA05F24EEA020EF7
:1006800020FA04F301FA05F243EA020321FA04F026
:1006900001F0004121FA04F220EA020000EBD370DD
:1006A0005EEA430E08BF20EAD37070BD94F0000FDD
:1006B0000FD101F00046400041EB010111F4801F11
:1006C00008BF013CF7D041EA060195F0000F18BFC2
:1006D000704703F00046520043EB030313F4801FFE
:1006E00008BF013DF7D043EA0603704794EA0C0FB8
:1006F0000CEA135518BF95EA0C0F0CD050EA4106CE
:1007000018BF52EA4306D1D181EA030101F000414A
:100710004FF0000070BD50EA410606BF1046194672
:1007200052EA430619D094EA0C0F02D150EA01367E
:1007300013D195EA0C0F05D152EA03361CBF1046BF
:1007400019460AD181EA030101F0004141F0FE415E
:1007500041F470014FF0000070BD41F0FE4141F4E2
:10076000780170BD70B54FF0FF0C4CF4E06C1CEAE2
:1007700011541DBF1CEA135594EA0C0F95EA0C0F97
:1007800000F0A7F8A4EB050481EA030E52EA033552
:100790004FEA013100F088804FEA03334FF0805573
:1007A00045EA131343EA12634FEA022245EA1115A0
:1007B00045EA10654FEA00260EF000419D4208BF51
:1007C000964244F1FD0404F5407402D25B084FEAFE
:1007D0003202B61A65EB03055B084FEA32024FF4AA
:1007E00080104FF4002CB6EB020E75EB030E22BF07
:1007F000B61A754640EA0C005B084FEA3202B6EBC7
:10080000020E75EB030E22BFB61A754640EA5C0075
:100810005B084FEA3202B6EB020E75EB030E22BF05
:10082000B61A754640EA9C005B084FEA3202B6EB06
:10083000020E75EB030E22BFB61A754640EADC00C5
:1008400055EA060E18D04FEA051545EA16754FEA27
:1008500006164FEAC30343EA52734FEAC2025FEA45
:100860001C1CC0D111F4801F0BD141EA00014FF0D4
:1008700000004FF0004CB6E711F4801F04BF0143A5
:100880000020B4F1FD0C88BFBCF5E06F3FF6AFAEC1
:10089000B5EB030C04BFB6EB020C5FEA500C50F151
:1008A000000041EB045170BD0EF0004E4EEA1131D4
:1008B00014EB5C04C2BFD4EB0C0541EA045170BDDB
:1008C00041F480114FF0000E013C90E645EA060E1F
:1008D0008DE60CEA135594EA0C0F08BF95EA0C0F4D
:1008E0003FF43BAF94EA0C0F0AD150EA01347FF495
:1008F00034AF95EA0C0F7FF425AF104619462CE76C
:1009000095EA0C0F06D152EA03353FF4FDAE1046CE
:10091000194622E750EA410618BF52EA43067FF41F
:10092000C5AE50EA41047FF40DAF52EA43057FF4AF
:10093000EBAE12E74FF0FF3C06E000BF4FF0010CBA
:1009400002E000BF4FF0010C4DF804CD4FEA410C1E
:100950007FEA6C5C4FEA430C18BF7FEA6C5C1BD0EB
:1009600001B050EA410C0CBF52EA430C91EA030F6C
:1009700002BF90EA020F0020704710F1000F91EAC9
:10098000030F58BF994208BF90422CBFD8176FEA97
:10099000E37040F0010070474FEA410C7FEA6C5C65
:1009A00002D150EA013C07D14FEA430C7FEA6C5C6C
:1009B000D6D152EA033CD3D05DF8040B704700BF98
:1009C0008446104662468C461946634600E000BFE6
:1009D00001B5FFF7B7FF002848BF10F1000F01BDB8
:1009E0004DF808EDFFF7F4FF0CBF012000205DF883
:1009F00008FB00BF4DF808EDFFF7EAFF34BF012008
:100A000000205DF808FB00BF4DF808EDFFF7E0FFA0
:100A100094BF012000205DF808FB00BF4DF808EDF1
:100A2000FFF7CEFF94BF012000205DF808FB00BF58
:100A30004DF808EDFFF7C4FF34BF012000205DF83A
:100A400008FB00BF4FEA410212F5001215D211D582
:100A50006FF47873B3EB625212D94FEAC12343F0BB
:100A6000004343EA505311F0004F23FA02F018BF3D
:100A7000404270474FF00000704750EA013005D106
:100A800011F0004008BF6FF0004070474FF00000C9
:100A9000704700BF4A0011D212F5001211D20DD5D5
:100AA0006FF47873B3EB62520ED44FEAC12343F074
:100AB000004343EA505323FA02F070474FF000001E
:100AC000704750EA013002D14FF0FF3070474FF0CD
:100AD000000070478B892DE9F0411A070C468046CB
:100AE0003BD44A68002A54DDE56A002D4ED000222E
:100AF000D8F80060216AC8F8002013F480527CD135
:100B000001234046A847431C47D0A389E56A216AD0
:100B10005F0705D56268636B801A0BB1236CC01A3E
:100B2000024600234046A847451C42D0002363608C
:100B3000A3892269DB04226000D56065616BC8F877
:100B4000006019B304F14403994202D0404600F01A
:100B5000D7FA00206063BDE8F0810E69B6B19A074C
:100B600018BF00230D6808BF4B690E60AD1B8B607A
:100B70000AE02B463246A76A216A4046B847002859
:100B8000A5EB0005064428DD002DF2DC0020BDE8C1
:100B9000F0810A6C002AA7DCF8E7D8F80030002BB7
:100BA000B3D01D2B01D0162B29D1C8F8006000202E
:100BB000EDE7D8F800201D2A17D8134BB4F90C1014
:100BC000D340DB4313F0010311D12569C904C4E903
:100BD0000053B3D5002AB1D1AFE7A3894FF0FF305E
:100BE00043F04003A381BDE8F081B4F90C1041F05B
:100BF0004001A1814FF0FF30C9E7606D88E7A3890C
:100C000043F04003A381C2E7010040200B6923B3F6
:100C100010B5044682B008B18369BBB1104B99424C
:100C200012D0104B994216D00F4B994208BFE16881
:100C3000B1F90C3013B9002002B010BD204602B04B
:100C4000BDE81040FFF746BF6168F1E7019100F091
:100C500007F90199E2E7A168EAE70020704700BFC1
:100C600074B4000854B4000834B4000820B1054B33
:100C700001461868FFF7CABF034B0449186800F023
:100C800033B900BF3000002094B400080D0C0008F8
:100C900000207047014900F027B900BF0D0C000883
:100CA0000020704770B568254A1E05FB02F50E4608
:100CB00005F1740100F078FA044640B100210C30CF
:100CC000666005F168022160A06000F0CFF920465F
:100CD00070BD00BF1E4B70B51D680646AB6943B3BF
:100CE0004835D5E90134013B05D51EE0013B5A1CCE
:100CF00004F1680419D0B4F90C20002AF6D10025BB
:100D0000144B6566C4E90055A560C4E90455A561A6
:100D10002946E360082204F15C0000F0A7F9C4E969
:100D20000D55C4E91255204670BD286828B1054606
:100D3000D7E7284600F010F8D2E704213046FFF745
:100D4000B1FF28600028F2D10C2304463360EAE7A3
:100D500094B400080100FFFF2DE9F84F0023334A47
:100D6000C0E9123312680365904208BF012330497D
:100D700008BF836181620546FFF7ACFF68602846C3
:100D8000FFF7A8FFA86028460024FFF7A3FF04236D
:100D90006E68E8602146F3607466C6E90044B4609A
:100DA000C6E90444B46106F15C00082200F05EF973
:100DB000DFF888B0AF68DFF888A0DFF88890DFF848
:100DC00088801C4BC6E9086BC6E90AA9C6F83080C2
:100DD0002146FB6008227C66C7E90044BC60C7E985
:100DE0000444BC6107F15C0000F040F9EE68124B6E
:100DF000C7E9087BC7E90AA9C7F830802146F36034
:100E00007466C6E90044B460C6E90444B46106F1FE
:100E10005C00082200F02AF90123C6E9086BC6E944
:100E20000AA9C6F83080AB61BDE8F88F94B4000819
:100E3000950C00080900010012000200FD120008D4
:100E4000251300086113000881130008024B0349B1
:100E5000186800F049B800BF94B400080D0C0008F1
:100E6000836903B978E77047704700BF704700BFD8
:100E7000704700BF704700BF024B0349186800F07D
:100E80000FB800BF30000020910C0008024B03494E
:100E9000186800F005B800BF30000020A10C000861
:100EA0002DE9F04110F148071AD088460026D7E90D
:100EB0000154013D0ED4A389013D012B06D9B4F99B
:100EC0000E30013302D02046C04706436B1C04F1AC
:100ED0006804F0D13F68002FE9D13046BDE8F081C9
:100EE0003E463046BDE8F0812DE9F84310F1480652
:100EF0001ED0884607464FF00009D6E90154013D4F
:100F000010D4A389013D012B08D9B4F90E30013367
:100F100004D021463846C04749EA00096B1C04F159
:100F20006804EED13668002EE7D14846BDE8F88364
:100F3000B1464846BDE8F88370B50D4E0D4D761BA1
:100F4000B61006D00024013455F8043B9847A64259
:100F5000F9D1094E094D0AF0BDFA761BB61006D03C
:100F60000024013455F8043B9847A642F9D170BDDE
:100F7000ECB40008ECB40008F0B40008ECB40008CD
:100F8000844641EA000313F0030349D1403A23D3D6
:100F90000B6803604B6843608B688360CB68C360F9
:100FA0000B6903614B6943618B698361CB69C361E1
:100FB0000B6A03624B6A43628B6A8362CB6AC362C9
:100FC0000B6B03634B6B43638B6B8363CB6BC363B1
:100FD00040304031403ADBD230320BD30B680360F3
:100FE0004B6843608B688360CB68C36010301031FE
:100FF000103AF3D20C3205D351F8043B40F8043BCD
:10100000043AF9D2043208D0D2071CBF11F8013BD0
:1010100000F8013B01D30B8803806046704700BF96
:10102000082A13D38B07B1D010F00303AED0C3F15D
:101030000403D21ADB071CBF11F8013B00F8013B87
:10104000A4D331F8023B20F8023B9FE7043AD9D3FE
:10105000013A11F8013B00F8013BF9D20B7803701B
:101060004B7843708B78837060467047F0B4860786
:1010700043D0541E002A3ED0CAB2034602E014F107
:10108000FF3438D303F8012B9D07F8D1032C2BD95B
:10109000CDB245EA05250F2C45EA054516D9A4F140
:1010A00010073F0903F1200606EB071603F11002B3
:1010B00042E9045542E902551032B242F8D104F037
:1010C0000F040137032C03EB07130DD91E462246EC
:1010D000043A032A46F8045BFAD8221F22F00302DE
:1010E0000432134404F003042CB1C9B21C4403F8C5
:1010F000011B9C42FBD1F0BC704714460346C5E778
:10110000002934D038B551F8043C0C1F002BB8BF6F
:10111000E418054600F000FB224B1A682AB1A242EF
:101120000DD921686018824235D0626028461C6063
:10113000BDE8384000F0F2BAA34203D81A4653681B
:10114000002BF9D111685018A04218D010D821688E
:101150006018834203BFD3E900030918C4E90013F0
:10116000636054602846BDE8384000F0D7BA704745
:101170000C2328462B60BDE8384000F0CFBA206829
:101180000144501883421160ECD1D3E900030144BB
:10119000C2E90013E6E7D2E900020144C4E9001203
:1011A000C4E700BF50360020F8B5CD1C25F003057C
:1011B00008350C2D38BF0C25002D06463ADBA94218
:1011C00038D82A4F00F0A8FA3A6852B113685B1B6E
:1011D00004D433E023685B1B25D522465468002CD9
:1011E000F8D1796800293BD02946304600F074F8E0
:1011F000431C2AD0C41C24F00304A04205D0211AA9
:10120000304600F069F801301FD02560304600F00C
:1012100085FA04F10B0020F00700231DC31A01D04A
:101220005A42E250F8BD0B2B0BD8A24215D063688E
:101230005360EBE70C2300203360F8BD0B2B0BD978
:10124000144623601C442560E0E70C2330463360DD
:1012500000F064FA0020F8BD54683C601446D5E7FD
:10126000304600F039F87860BEE700BF5036002005
:101270000EB430B5044682B008B1836963B106ADDF
:101280002B46059AA1682046019500F08BFA02B022
:10129000BDE8304003B07047FFF7E2FDEFE700BF65
:1012A0000FB430B50B4B83B01C680CB1A36963B1AC
:1012B00007AD2B46069AA1682046019500F072FA08
:1012C00003B0BDE8304004B070472046FFF7C8FDCA
:1012D000EEE700BF3000002038B50023064C05467D
:1012E0000846236001F0AAF9431C00D038BD2368EA
:1012F000002BFBD02B6038BD703F002010B50C4692
:10130000B1F90E1000F08EFD002803DB636D03447D
:10131000636510BDA38923F48053A38110BD00BF72
:10132000002070472DE9F041B1F90C409846E305E3
:101330000D461746B1F90E10064607D502230022C6
:1013400000F0D4F9B5F90C40B5F90E1024F480542E
:10135000AC8143463A463046BDE8F04100F09EB9C4
:1013600010B50C46B1F90E1000F0C0F9A389421C6B
:101370000EBF23F4805343F480536065A38110BDF6
:10138000B1F90E1000F0A0B9830710B5044610D1D2
:101390000268A2F1013323EA020313F0803F08D16F
:1013A00050F8042FA2F1013323EA020313F0803F27
:1013B000F6D003781BB110F8013F002BFBD100F0F1
:1013C000E1F8204610BD00BF80EA010C1CF0030FBD
:1013D00037D110F0030C20F0030021F0030150F886
:1013E000042B08BF51F8043B0ED08CF0030C6FF0B7
:1013F0007F434FEACC0C23FA0CFC51F8043B42EA41
:101400000C0243EA0C0300BFA2F1013C9A4201BF67
:101410002CEA020C1CF0803F50F8042B51F8043BDE
:10142000F2D04FEA02604FEA1222012828BFB0EB47
:10143000036F08BF1B0AF4D003F0FF03000EC01AAD
:10144000704710F0030F0AD010F8012B11F8013B80
:10145000012A28BF9A42F4D0A2EB030070474DF84E
:10146000045D50F8042B01F0030521F0030151F84D
:10147000043B022D26D04DD822F07F45B5EB132F2B
:10148000A2F1013C2CEA020C0DD11CF0803C08BFFB
:1014900051F8043B0AD185EA0205B5EB036F0CD184
:1014A00050F8042BE8E74FEA13235BE03CF07F4C55
:1014B00054D10B784FEA126554E04FEA126503F0FD
:1014C000FF034FE04FEA0245A2F1013C4FEA154508
:1014D0002CEA020CB5EB134F18D11CF0803C08BF6E
:1014E00051F8043B07D185EA0205B5EB034F09D15A
:1014F00050F8042BE6E75FEA0C4C2FD10B884FEA3B
:1015000012452FE04FEA03434FEA12454FEA1343D7
:1015100028E000BF02F0FF05B5EB136FA2F1013C1C
:101520002CEA020C0DD11CF0803C08BF51F8043BA2
:101530000AD185EA0205B5EB032F0AD150F8042B36
:10154000E8E74FEA13630DE012F0FF0F06D051F801
:10155000043B4FEA122523F07F4303E04FF00000E5
:1015600020BC704705F0FF0203F0FF00012828BFF0
:10157000904204BF2D0A1B0AF4D0A2EB000020BC4D
:10158000704700BF80EA0102844612F0030F4FD17A
:1015900011F0030F32D14DF8044D11F0040F51F842
:1015A000043B0BD0A3F101329A4312F0803F04BFF9
:1015B0004CF8043B51F8043B16D100BF51F8044BE2
:1015C000A3F101329A4312F0803FA4F101320BD112
:1015D0004CF8043BA24312F0803F04BF51F8043B97
:1015E0004CF8044BEAD023460CF8013B13F0FF0FF4
:1015F0004FEA3323F8D15DF8044B704711F0010F27
:1016000006D011F8012B0CF8012B002A08BF7047F7
:1016100011F0020FBFD031F8022B12F0FF0F16BFEE
:101620002CF8022B8CF8002012F47F4FB3D17047B6
:1016300011F8012B0CF8012B002AF9D1704700BFDB
:1016400020F0030110F00300C0F1000051F8043B4A
:1016500000F1040C4FEACC0C6FF000021CBF22FA20
:101660000CF213434FF0010C4CEA0C2C4CEA0C4CDE
:10167000A3EB0C0222EA030212EACC1204BF51F8D7
:10168000043B0430F4D0C2F1000102EA0102B2FAD4
:1016900082F2C2F11F0200EBD2007047F8B50E468D
:1016A0000025084C114607461A463046256003F0CF
:1016B000A1FE431C00D0F8BD2368002BFBD03B608B
:1016C000F8BD00BF703F002038B50023064C05462A
:1016D0000846236000F08AFF431C00D038BD236811
:1016E000002BFBD02B6038BD703F0020F8B50E46B4
:1016F0000025084C114607461A463046256000F082
:101700008DFF431C00D0F8BD2368002BFBD03B604D
:10171000F8BD00BF703F0020704700BF704700BF9A
:101720009368013B002B936005DB1368581C106025
:1017300019700846704710B49469A34208DB0A295F
:1017400006D01368581C10601970084610BC70470A
:1017500010BC00F07DBB00BF9BB1F8B5D5180F469B
:101760000646013D541E01E0AC4208D03A4614F84A
:10177000011F3046FFF7D4FF431CF5D1F8BD002010
:10178000F8BD0020704700BF936810B5144613B928
:101790005360184610BD00F03BFC0023C4E9013340
:1017A00010BD00BF2DE9F04F9DB088461446CDE92D
:1017B000020318B18369002B00F0C480A34B984545
:1017C00000F0C680A24B984500F0D480A14B98450C
:1017D00004BF029BD3F80C80B8F80C301D0740F111
:1017E000BF80D8F81030002B00F0BA8030230021E1
:1017F00020228DF82A30237809918DF82920964DE2
:101800000126002B00F09680252BA24603D119E07B
:10181000252B00F0E1801AF8013F002BF8D1BAEB3C
:10182000040B00F0878022465B4641460298FFF792
:1018300093FF01307ED0099B9AF800205B44099306
:10184000002A77D000234FF0FF320AF1010A0493F7
:10185000CDE906338DF853301A93059206E0CA4657
:10186000049B401B06FA00F018430490D146052261
:1018700019F8011B284600F0BDFDCB460028EED12B
:10188000049BD80644BF20228DF85320190748BF77
:101890002B229AF8001048BF8DF853202A296DD0CA
:1018A000A1F13003092B00F2CB80079A02E0CA466F
:1018B00009F1010999F8001002EB820203EB4202E0
:1018C000A1F13003092BCB46F1D90AF102090792A5
:1018D0002E2960D0614C0322204600F08BFD0028A9
:1018E00077D04021001B049A01FA00F002430492D1
:1018F00009F1010499F800300622194658488DF87C
:10190000283000F077FD002878D0564B002B68D0A7
:1019100003AB00934246544B04A90298AFF30080F6
:1019200007467A1C06D0099B3B4409932378002B79
:101930007FF46AAFB8F80C305B0618D409981DB074
:10194000BDE8F08FFFF78CFA404B98457FF43AAF33
:10195000029BD3F80480B8F80C301D073FF541AF67
:101960004146029800F0D4FA00283FF43FAF4FF010
:10197000FF30E4E7029BD3F808802DE7039A116853
:1019800004320029039233DB07919AF801100AF11F
:1019900002092E299ED19BF801102A2938D1039BD8
:1019A0002E4C1A680BF10200002A0592B7BF4FF0C7
:1019B000FF329BF802109BF80210059204330BF1E2
:1019C0000309032283462046039300F013FD0028F9
:1019D00087D14C46D9468DE7BAEB040B3FF432AFC2
:1019E00021E7039B073323F00703083303939AE7A8
:1019F000494243F0020307910493C6E703AB009307
:101A00004246194B04A9029800F0CAF8074688E735
:101A10000022A1F130000928059201D912E0D9462F
:101A200099F8011002EB820200EB4202A1F13000B2
:101A3000092809F1010BF2D909F10209059249E7D8
:101A4000D34645E7CB4609F1010943E774B40008E2
:101A500054B4000834B4000898B40008A0B40008D6
:101A6000A4B40008000000005917000810B4044C8A
:101A700013460A460146206810BCFFF793BE00BF1C
:101A8000300000202DE9F0470C460969A568914611
:101A90008D42B8BF0D46156094F8431006461F46A8
:101AA000DDF8208011B16A1CC9F80020236899066E
:101AB0005FD5D9F800200232C9F80020236813F05E
:101AC000060F19461DD1E1688A1A002AD8BF1946A7
:101AD00017DD002504F1190A05E0E368D9F80020B4
:101AE0009B1AAB420CDD0123524639463046C047B3
:101AF000013005F10105F0D14FF0FF30BDE8F0876E
:101B0000216894F84330003318BF01238A060AD5B0
:101B10003021E21882F8431094F845105A1C2244F0
:101B200082F84310023304F1430239463046C0477D
:101B30000130E1D0D4E902202368D9F8005003F045
:101B40000603042B21691AD08A421FDD4FF00009D9
:101B5000521A914400251A3401E04D4516D0012354
:101B6000224639463046C047013005F10105F4D11F
:101B7000C2E713F0060F0CD1D9F80020A3E7401BF1
:101B80008A4220EAE079E3DC0028E3DC0020BDE8BB
:101B9000F08794F84330003318BF0123C3E700BF38
:101BA0002DE9F0430C46097E85B06E29064617469E
:101BB000984604F1430C0C9D4AD00FD8632900F0DD
:101BC000FE8000F2BE8000294ED0582940F0E0800F
:101BD00084F845102268DFF844E212E0732900F02F
:101BE000C5807AD86F2900F0DA80702940F0D08063
:101BF000206840F0200222607823DFF824E284F895
:101C000045302B68191D1B682960150602D4500643
:101C100048BF9BB2D10744BF42F020022260002B94
:101C20006CD1D4E9001284F84330002A21F020035B
:101C30002360A2607DDB21F0240121601021002AB5
:101C400078D1654608294ED0ACEB050323610EE040
:101C50002B682268181D6169286015061B6802D46C
:101C6000500600F1C6801960002365462361CDF857
:101C700000803B4603AA21463046FFF703FF0130B0
:101C800020D02A46236939463046C047013019D052
:101C9000226803989207E36819D51A1A002A16DDFC
:101CA000002504F1190904E0E36803981A1AAA420E
:101CB0000DDD01234A4639463046C047013005F163
:101CC0000105F1D14FF0FF3005B0BDE8F083984237
:101CD000B8BF184605B0BDE8F08375295FD07829F4
:101CE00056D1226888E72368DB07ADD5626823698F
:101CF0009A42A9DC3023013D2B70A5E71021002278
:101D000084F843206268002AA2602CDB206820F05F
:101D100004002060002B92D06546B3FBF1F201FB7A
:101D200012331EF80300134605F8010D002AF4D102
:101D300088E710219EF8003004F1420584F8423013
:101D400080E7642901D0692922D120682B68010627
:101D500003F1040245D51B682A60002B4BDB0A21E6
:101D6000DFF8B8E0CEE7002BD6D1E3E72B68626856
:101D7000191D29601D680021284600F03BFB002842
:101D800045D0401B60602061002384F843306EE73B
:101D9000012384F84210236104F14205F4E720682E
:101DA0002B6810F0800F03F1040213D01B682A6027
:101DB0006F290CBF08210A21DFF860E09FE70122AC
:101DC0002B68191D1B68296004F1420584F8423014
:101DD0002261D9E7400653BF1B682A601B882A602E
:101DE000E6E7410653BF1B682A60B3F900302A605A
:101DF000B3E7198038E72D2162685B42002A84F836
:101E00004310A26005DB0A21DFF810E07FE760687D
:101E1000B9E7DFF808E00A217EE700BFACB40008AC
:101E2000C0B40008F8B50E460025084C1146074618
:101E30001A463046256000F0F9FB431C00D0F8BD7F
:101E40002368002BFBD03B60F8BD00BF703F002033
:101E5000F8B50D461446064608B1836943B3254BD1
:101E60009C422AD0244B9C4229D0244B9C4208BF40
:101E7000F468A269A389A2601A0722D5236903B373
:101E800022686169D31AEDB299422F4629DD0133E8
:101E9000A168501C0139A1602060157062699A42E6
:101EA00016D0A389DB0701D50A2D11D03846F8BD1D
:101EB000FEF7D6FF0F4B9C42D4D17468D9E7B468C3
:101EC000D7E72146304600F023F838B92369D7E731
:101ED00021463046FEF79AFE0028E7D04FF0FF3744
:101EE000E4E721463046FEF791FE0028F6D10123B3
:101EF0002268CDE774B4000854B4000834B4000874
:101F0000024B0A4601461868FFF7A2BF30000020C6
:101F10003B4B70B51D6806460C460DB1AB69DBB195
:101F2000384B9C421ED0384B9C424AD0374B9C4287
:101F300008BFEC68B4F90C2093B2190718D52069D2
:101F400008B313F001022CD000226369A2605B4247
:101F5000A36160B3002070BD2846FEF781FF294BC6
:101F60009C42E0D16C68B4F90C2093B21907E6D416
:101F7000DD063CD5580726D4206942F00803A3812A
:101F80009BB20028DDD103F42072B2F5007FD8D0D7
:101F90003046214600F0E4F9A389206913F00102DC
:101FA000D2D1990758BF6269A2600028D2D1B4F992
:101FB0000C301A06CFD543F04003A3814FF0FF3019
:101FC00070BDAC68B6E7616B51B104F1440399424E
:101FD00004D03046FFF794F8B4F90C200023636373
:101FE0000023206922F02402C4E90003C5E7092385
:101FF00042F0400233604FF0FF30A28170BD00BF5D
:102000003000002074B4000854B4000834B4000850
:102010009368002B00F0DB802DE9F04FB1F90C3014
:102020000C469BB2190783B0824690462BD5226995
:102030004AB313F00202D8F8006033D000273D46BF
:10204000D4F828B0216ADFF8B892C5B14D452B46C7
:102050003A4628BF4B465046D847002840F3BF8039
:10206000D8F8083007441B1A2D1AC8F80830002B7E
:1020700000F0A980D4F828B0216A002DE6D1D6E975
:1020800000750836E1E721465046FFF741FF00287A
:1020900040F03081B4F90C30D8F800609BB213F0F6
:1020A0000202CBD113F001095ED14D46A76820682A
:1020B000002D55D09A0540F19C80AF42BB4600F2FE
:1020C000DE8013F4906F2FD0D4E9041707EB470795
:1020D000A0EB010B07EBD777681C7F105844B84280
:1020E0003A4684BF07463A465B0540F1D98011461F
:1020F0005046FFF759F8002800F0F6805A4621694B
:102100000190FEF73DFFA289019B22F4906242F00C
:102110008002A281A7EB0B0203EB0B006761AB46C9
:102120002F4623612060A2605A46494600F0A8F974
:102130002368A2685B44AB460025D71BA7602360D9
:10214000D8F80870D944A7EB0B07C8F80870002F1F
:1021500039D0B4F90C30A7689BB22068002DA9D102
:10216000D6E900950836A3E7334691461046174650
:102170004E469B46002F6ED0002876D020682169FD
:10218000B9454B4628BF3B468842626903D9A568DA
:102190001544AB4276DC9A4200F398801346A56A58
:1021A0003246216A5046A847051E18DDB9EB0509DD
:1021B0000FD00120D8F808302E445B1B7F1BC8F8D5
:1021C0000830002BD6D1002003B0BDE8F08F0020EE
:1021D000704721465046FEF719FD0028EAD0B4F9B1
:1021E0000C304FF0FF3043F04003A38103B0BDE853
:1021F000F08F2369834217D36269AA4214D83F4BF8
:10220000A76A9D4294BF2B466FF0004393FBF2F305
:10221000216A02FB03F350464A46B847B0F1000B6F
:10222000DDDDA5EB0B058BE7AF4228BF2F46494606
:102230003A4600F025F9A3682268DB1B3A44BB4606
:10224000A3602260002BECD121465046FEF7DEFC55
:102250000028E6D0C3E70BF1080353F8047C9B4643
:1022600053F8086C0833002FF7D03A460A2130465D
:1022700000F0C0F838B30130A0EB06097EE72F4626
:10228000AB4651E731462A4600F0FAF8236821466A
:102290002B4423605046FEF7B9FC002886D09EE709
:1022A000504600F04FF9034600287FF433AF216910
:1022B0005046FEF725FF0C22B4F90C30CAF8002076
:1022C00023F080038DE707F1010957E71A463146ED
:1022D0001D46019300F0D4F8A1682268019BC91A39
:1022E0001344A160236061E70C22B4F90C30CAF8F2
:1022F000002076E74FF0FF3066E700BFFEFFFF7F6C
:1023000000FCFF7F70B50C46B1F90E1090B00029AB
:1023100016461D460FDA0022A3892A601B0605D443
:102320004FF480630020336010B070BD4023002064
:10233000336010B070BD01AA00F02AF90028EADB72
:10234000029B4FF4806203F47043A3F50053B3FA89
:1023500083F300205B092B60326010B070BD00BFBA
:102360008A890B46920706D5012103F1470259617C
:102370001A601A61704770B582B001AB6A460C46AC
:102380000546FFF7BFFF009906462846FEF70CFFFB
:10239000B4F90C30D8B1164A0099AA62019A43F0F8
:1023A0008003A3812060C4E904011AB93343A381E7
:1023B00002B070BD2846B4F90E1000F0FDF8A0B1CF
:1023C000A38923F0030343F001031BB2EEE79A0550
:1023D000EED4012123F0030304F1470243F002038A
:1023E000A381616122602261E2E7B4F90C30DDE78C
:1023F000950C0008830770B4CDB23DD0541E0AB3CB
:102400000378AB421FD0431C05E014F1FF3419D30D
:102410000278AA4217D013F0030F184603F1010304
:10242000F3D1032C11D84CB30378AB420BD0044446
:10243000431C02E00278AA4205D09C42184603F1F0
:102440000103F7D1002070BC704706460A0292B221
:102450002A4342EA0242336830465340A3F1013135
:1024600021EA030313F0803F06F10406DCD1043CAB
:10247000032C3046EFD8D6E71446D2E72046E2E7F1
:102480008842F0B40DD98B1883420AD9841832B12E
:10249000224613F8014D994202F8014DF9D1F0BCE2
:1024A00070470F2A48D940EA01039B0746D1A2F1A1
:1024B00010031B0901F1200707EB031701F11004BA
:1024C00000F1100554F8106C103445F8106C54F8F5
:1024D0001C6C103545F81C6C54F8186C45F8186CD9
:1024E00054F8146CBC4245F8146CEBD1013302F083
:1024F0000F051B01032D1944034421D90F462C4617
:102500001E1F57F804CB043C032C46F804CFF8D820
:102510002C1F24F0030404342344214402F003025A
:10252000002ABCD0013B0A4411F8014B914203F848
:10253000014FF9D1F0BC70470346F1E70346F1E7DC
:102540002A46EDE7E1B1F8B51446E2B106460D467C
:1025500000F044F8A04202D32F463846F8BD214689
:102560003046FEF721FE07460028F6D022462946CF
:10257000FEF706FD30462946FEF7C2FD3846F8BD97
:102580001146FEF711BEFEF7BBFD2746E5E700BF8B
:1025900070B50D460023074C0646114628462360B9
:1025A00000F02CF8431C00D070BD2368002BFBD03A
:1025B000336070BD703F002038B50023064C0546DF
:1025C0000846236000F022F8431C00D038BD236881
:1025D000002BFBD02B6038BD703F002051F8043C2D
:1025E000181F002BBCBF0B58C01870475822024B55
:1025F0004FF0FF301A607047703F00205822024BA6
:102600004FF0FF301A607047703F00205822024B95
:1026100000201A60704700BF703F00205822024B14
:102620004FF0FF301A607047703F00205822024B75
:102630004FF0FF301A607047703F0020044A054990
:102640001368002B08BF0B461844106018467047EB
:1026500058360020743F002080B582B000AF78600B
:10266000084611461A460346FB700B46BB701346DC
:102670007B707B78092B07D97B78092B02D909233A
:102680007B7001E000237B707B780C4AD35CFA7886
:102690009A420AD0FA783B7C9A4203D1BA787B6896
:1026A000104698470A2005F026FF7B780349FA7800
:1026B000CA5400BF0837BD4680BD00BFB40000202B
:1026C00090B58DB002AFC7E902017A60002387F8A8
:1026D0002630002387F82530D7E90201FEF7DAF922
:1026E00003467B8400233B617B8C1846FDF7A6FEE6
:1026F00003460C461A462346D7E90201FDF750FD72
:1027000003460C46C7E9063415233B744FF000021C
:102710005B4BD7E90601FDF7FBFE03460C46184666
:102720002146FEF78FF90146564B83FB01239A1091
:10273000CB17D21A13469B0013445B00CA1A1346E8
:10274000FB754FF00002504BD7E90601FDF7E0FEA4
:1027500003460C4618462146FEF774F90146494BDC
:1027600083FB01239A10CB17D21A13469B00134404
:102770005B00CA1A1346BB754FF00002434BD7E902
:102780000201FDF7C5FE03460C4618462146FEF73A
:1027900059F901463B4B83FB01239A10CB17D21A00
:1027A00013469B0013445B00CA1A13467B757B8C4F
:1027B0007968184600F06CF8034687F826304FF029
:1027C00000024FF00003D7E90601FEF709F90346BE
:1027D000002B04D097F8263087F8273049E0BB7DDE
:1027E000002B15D17B7D002B12D1FB7D7B7497F8DC
:1027F000263099B297F826309BB207F11002009369
:102800000223786800F0BEFB034687F8273030E0EB
:10281000BB7D002B17D07B7D002B14D1FB7D7B74FF
:10282000BB7DBB7497F8263099B297F826309BB2DF
:1028300007F1100200930323786800F0A3FB03461E
:1028400087F8273015E0FB7D7B74BB7DBB747B7DF7
:10285000FB7497F8263099B297F826309BB207F1AF
:10286000100200930423786800F08CFB034687F87D
:10287000273097F8273018462C37BD4690BD00BF4B
:1028800000002440676666660000594000408F40A3
:1028900080B485B000AF03463960FB80FB8842F20C
:1028A0000F72934202D942F20F73FB80FB88BD4A3C
:1028B000A2FB03239B099BB2BB73FB88B94AA2FB13
:1028C000031292094FF47A7101FB02F29B1A9BB238
:1028D000B54AA2FB03235B099BB27B73FB88B24A18
:1028E000A2FB03125209642101FB02F29B1A9BB264
:1028F000AE4AA2FB0323DB089BB23B73FA88AB4BC7
:10290000A3FB0213D9080B469B000B445B00D31AB0
:102910009BB2FB72FB88092B05D8FB88DAB23B68B7
:102920001A700123FB73FB88092B26D9FB88632BC4
:1029300023D8FA889D4BA3FB0213D9080B469B00B2
:102940000B445B00D31A9BB2002B09D13B683A7B46
:102950001A703B6801330A221A700223FB730CE0E1
:102960003B683A7B1A703B6801330A221A703B6855
:102970000233FA7A1A700323FB73FB88632B77D92F
:10298000FB88B3F57A7F73D2FB88874AA2FB0312D8
:102990005209642101FB02F29B1A9BB2002B09D160
:1029A0003B687A7B1A703B6801330B221A70022352
:1029B000FB735DE0FA887D4BA3FB0213D9080B463D
:1029C0009B000B445B00D31A9BB2002B11D13B68D8
:1029D0007A7B1A703B6801330B221A703B68023312
:1029E0003A7B1A703B6803330A221A700423FB7384
:1029F0003EE0FB886C4AA2FB03125209642101FBF2
:102A000002F29B1A9BB2002B1DD0FB88664AA2FBE8
:102A100003125209642101FB02F29B1A9BB2092B9B
:102A200011D83B687A7B1A703B6801330B221A700D
:102A30003B68023300221A703B680333FA7A1A703B
:102A40000423FB7314E03B687A7B1A703B68013304
:102A50000B221A703B6802333A7B1A703B680333CF
:102A60000A221A703B680433FA7A1A700523FB7342
:102A7000FB88B3F57A7FC0F0FE80FB8842F20F72CC
:102A8000934200F2F880FB88464AA2FB03129209A7
:102A90004FF47A7101FB02F29B1A9BB2002B09D111
:102AA0003B68BA7B1A703B6801330C221A70022310
:102AB000FB73E0E07B7B002B17D13B7B002B14D119
:102AC000FB7A002B11D03B68BA7B1A703B6801334C
:102AD0000C221A703B68023300221A703B680333E1
:102AE000FA7A1A700423FB73C5E07B7B002B1BD1A1
:102AF0003B7B002B18D0FB7A002B15D13B68BA7BAF
:102B00001A703B6801330C221A703B6802330022B2
:102B10001A703B6803333A7B1A703B6804330A220D
:102B20001A700523FB73A6E07B7B002B1FD13B7B38
:102B3000002B1CD0FB7A002B19D03B68BA7B1A7093
:102B40003B6801330C221A703B68023300221A7072
:102B50003B6803333A7B1A703B6804330A221A70CD
:102B60003B680533FA7A1A700623FB7383E07B7B9C
:102B7000002B1DD03B7B002B1AD1FB7A002B17D1E9
:102B80003B68BA7B1A703B6801330C221A703B68B1
:102B900002337A7B1A703B6803330B221A700423CA
:102BA000FB7368E0D34D62101F85EB51CDCCCCCCCC
:102BB0007B7B002B1FD03B7B002B1CD0FB7A002B98
:102BC00019D13B68BA7B1A703B6801330C221A702A
:102BD0003B6802337A7B1A703B6803330B221A700E
:102BE0003B6804333A7B1A703B6805330A221A703B
:102BF0000623FB733FE07B7B002B1FD03B7B002B2E
:102C00001CD1FB7A002B19D03B68BA7B1A703B6849
:102C100001330C221A703B6802337A7B1A703B68CE
:102C200003330B221A703B68043300221A703B688E
:102C30000533FA7A1A700623FB731CE03B68BA7BF3
:102C40001A703B6801330C221A703B6802337A7B9E
:102C50001A703B6803330B221A703B6804333A7BCB
:102C60001A703B6805330A221A703B680633FA7AF9
:102C70001A700723FB73FB7B18461437BD4680BCD4
:102C8000704700BF80B58EB002AFC7E902017A601D
:102C9000FB70002387F82F30002387F82E30FB7855
:102CA000012B02D0022B27D051E07B680D221A7035
:102CB0007B68013310221A7007F1240300221A6086
:102CC0005A601A8107F124031A46D7E90201FFF777
:102CD000F7FC034687F82E3097F82E3099B207F1AB
:102CE0002402012300930B460221786800F04AF980
:102CF000034687F82F302BE07B680F221A707B6821
:102D0000013314221A707B68023316221A7007F1FD
:102D1000140300221A605A609A60DA6007F1140303
:102D20001A46D7E90201FFF7CBFC034687F82E309D
:102D300097F82E3099B207F11402012300930B4645
:102D40000321786800F01EF9034687F82F3000BF92
:102D500097F82F3018463037BD4680BD80B58AB011
:102D600002AF786039600023FB773B680E221A704F
:102D70003B68013311221A703B68023312221A7029
:102D80003B68033313221A707B68454AA2FB032376
:102D9000DB0ABB777A68424BA3FB0213DB0A4FF4D2
:102DA000616101FB03F3D31A3E4AA2FB03235B09D3
:102DB0007B777B683A4AA2FB0312D20A4FF4616127
:102DC00001FB02F29A1A374BA3FB021359090B4677
:102DD0001B015B1A9B00D11A0B463B770023FB7645
:102DE0000023BB7600237B7607F1100300221A60D4
:102DF0005A600023FB600023BB60BB7F9BB207F1DE
:102E0000100211461846FFF743FD0346FB767B7F11
:102E10009BB207F10C0211461846FFF739FD034635
:102E2000BB763B7F9BB207F1080211461846FFF7BD
:102E30002FFD03467B76FB7E99B207F1100201233A
:102E400000930B460421386800F09CF80346FB779A
:102E5000FB7F99B2BB7E98B2FB7F9BB2023B9BB2D9
:102E600007F10C0200930346386800F08BF8034624
:102E7000FB77FB7F99B27B7E98B2FB7F9BB2013BD5
:102E80009BB207F1080200930346386800F07AF815
:102E90000346FB77FB7F18462037BD4680BD00BF49
:102EA000C5B3A2918988888880B590B002AFC7E980
:102EB00000230346FB810B46BB81002387F8373094
:102EC000002387F83630002387F83530002387F851
:102ED000343007F1200300221A605A609A60DA60E9
:102EE0001A6107F1140300221A605A601A81FB89E3
:102EF0001846FDF793FA01233A6CFFF7C3FE034629
:102F000087F83630BB8907F1200211461846FFF7D3
:102F100025FF034687F8353007F114020223D7E96D
:102F20000001FFF7AFFE034687F8343097F83630DC
:102F300099B297F8353098B297F836309BB207F1CE
:102F4000200200930346386C00F01CF8034687F813
:102F5000373097F8373099B297F8343098B297F8FD
:102F600037309BB207F1140200930346386C00F02F
:102F700009F8034687F8373097F83730184638375E
:102F8000BD4680BD80B586B000AFF8607A601A4655
:102F90000B467B8113463B816FF001037B6100236D
:102FA0007B827A893B891344B3F5803F1CDA3A8CE3
:102FB0003B8913441A46FB6898183B8CFA68D11871
:102FC0007A893B8CD31A01331A46FDF7D9FF3B8C23
:102FD000FA6813443A8979681846FDF7D1FF7A896F
:102FE0003B8913447B6102E04FF0FF337B617B69D7
:102FF00018461837BD4680BD80B487B000AFF86072
:10300000084611461A4603467B810B467B721346DF
:10301000FB806FF001037B6100233B617B890133FF
:10302000B3F5803F1BDA7B893B610BE03B69FA68B3
:103030001A443B690133F9680B4412781A703B69F2
:10304000013B3B61FB883A699A42EFDAFB88FA68F8
:1030500013447A7A1A707B8901337B6102E04FF066
:10306000FF337B617B6918461C37BD4680BC7047C7
:10307000F0B585B000AFF860B9607A607B68274A28
:1030800014469C4604F1300E654626460FCE286055
:103090006960AA60EB6010340CF1100C7445F3D138
:1030A0006246234603CB106051601B881381F96888
:1030B0007868FEF769F97868FEF7C2FA03461A469F
:1030C0007B681344164A1D4614460FCC286069607D
:1030D000AA60EB6023882B82B9687868FEF754F900
:1030E0007868FEF7ADFA03461A467B6813440D492B
:1030F0001A460B461B881380F868FEF7A1FA0346B0
:10310000DCB2B868FEF79CFA0346DBB22344DBB2BC
:103110004C33DBB218461437BD46F0BD3CB2000854
:1031200078B200088CB2000880B584B000AF786037
:103130000C4B5B68FB6006F057F902460A4BA3FB99
:1031400002239B0C7A6802FB03F37B6000BF054BF4
:103150005A68FB68D21A7B689A42F8D300BF1037CE
:10316000BD4680BD001000E083DE1B4380B584B007
:1031700000AF0346FB711F4B01221A601E4B012258
:103180001A60FB79FB731B4B00221A60052005F0C7
:10319000B2F9FB7B03F00103BB7300237B731AE0DE
:1031A000144B00221A60144ABB7B13604FF49670D4
:1031B000FFF7BAFF0F4B01221A604FF49670FFF72A
:1031C000B3FFFB7B5B08FB73FB7B03F00103BB736B
:1031D0007B7B01337B737B7B072BE1D9064B012281
:1031E0001A60044B01221A6000BF18461037BD4612
:1031F00080BD00BFB4812142B081214280B582B040
:1032000000AF0346FB7100BF4FF40041064807F0D2
:103210002DFF0346012BF7D1FB791846FFF7A6FFD8
:1032200000BF0837BD4680BD000C014080B584B0AA
:1032300000AF03463960FB710023FB720023FB6083
:1032400009E0FB683A6813441B781846FFF7D6FF7D
:10325000FB680133FB60FB79FA689A42F1DB0123DA
:10326000FB72FB7A18461037BD4680BD80B582B030
:1032700000AF7860FF21786802F0F6F9FF217868E6
:1032800002F0F2F9FF21786802F0EEF900BF08378A
:10329000BD4680BD80B584B000AFF860B9607A608B
:1032A0007B68BA680549F86802F069FCF868FFF7BE
:1032B000DDFF00BF1037BD4680BD00BF90B20008E3
:1032C00080B584B000AFF860B9607A607A68B96898
:1032D0000748FDF7E5FF074B1B689B681846FDF79D
:1032E000C5FCF868FFF7C2FF00BF1037BD4680BDC0
:1032F00090B200083000002080B584B000AFF860C4
:10330000B9607A607B68BA680549F86802F037FCF2
:10331000F868FFF7ABFF00BF1037BD4680BD00BFA8
:1033200098B2000880B584B000AF78600C4B5B6841
:10333000FB6006F059F802460A4BA3FB02239B0CE4
:103340007A6802FB03F37B6000BF054B5A68FB6899
:10335000D21A7B689A42F8D300BF1037BD4680BDB1
:10336000001000E083DE1B4380B582B000AF104B3D
:103370009B690F4A43F0040393610D4B9B6903F073
:1033800004037B607B680B4B01225A60094B4FF4AE
:1033900000421A60074B00229A60064B0322DA6053
:1033A0000449054807F0F4FC00BF0837BD4680BD5E
:1033B00000100240643600200008014080B582B051
:1033C00000AF0346FB71FB79002B11D1144B002297
:1033D0005A60134B4FF400421A60114B00229A605E
:1033E0000F4B0322DA600E490E4807F0D1FC13E0C0
:1033F000FB79012B10D10A4B01225A60084B4FF484
:1034000000421A60064B00229A60054B0322DA60E4
:103410000349044807F0BCFC00BF0837BD4680BD27
:10342000643600200008014080B500AFFFF79CFF24
:1034300000BF80BD80B584B000AF0023BB73002304
:10344000BB6000237B600023FB7346E000BF4FF4AA
:103450000041264807F00AFE0346002BF7D028203B
:10346000FFF760FF4FF40041204807F0FFFD0346DF
:10347000012B23D102F018FEB8600CE002F014FE1C
:103480000246BB68D31AB3F57A7F04D902F00CFE6A
:10349000B860002325E04FF40041144807F0E6FD32
:1034A0000346012BEAD0FB7BC3F10703012202FA9A
:1034B00003F3DAB2BB7B1343BB730BE0FB7BC3F1BB
:1034C0000703012202FA03F3DBB2DB43DAB2BB7B70
:1034D0001340BB73FB7B0133FB73FB7B072BB5D91D
:1034E000BB7B18461037BD4680BD00BF00080140B9
:1034F00080B584B000AF78600023FB600023BB6020
:103500000120FFF75BFF00224FF40041364807F02F
:10351000C4FD122004F0EFFF01224FF400413248B5
:1035200007F0BBFD0D20FFF7FDFE0020FFF746FF73
:103530004FF400412C4807F099FD0346002B4DD174
:1035400000BF4FF40041284807F090FD0346002BD0
:10355000F7D000BF4FF40041234807F087FD034632
:10356000012BF7D0FFF766FF03461A467B681A70F7
:10357000FFF760FF03461A467B685A70FFF75AFF51
:1035800003461A467B689A70FFF754FF03461A46B3
:103590007B68DA70FFF74EFF03461A467B681A71A4
:1035A0000120FFF70BFF01224FF400410E4807F006
:1035B00074FD7B681B7919467B681B781A467B680B
:1035C0005B7813447A68927813447A68D27813440B
:1035D000994201D1012302E0002300E000231846B4
:1035E0001037BD4680BD00BF0008014080B586B0E1
:1035F00000AF78600023FB7500233B610023BB60B4
:103600000023FB607B68002B01D10123CEE07B68A7
:103610009B68002B7B689B6A002B09D17B6800228A
:10362000DA627B68002283F82420786800F0F2FCDC
:10363000786800F0D5FB0346FB757B689B6A03F056
:103640001003002B40F0A980FB7D002B40F0A580EB
:103650007B689B6A23F4885323F0020343F0020241
:103660007B689A627B685A687B681B6851498B4209
:103670000AD17B68DB69B3F5402F02D07B68DB6938
:1036800004E04FF4002301E07B68DB691A437B68A8
:10369000DB685B001343BA681343BB607B689B68BD
:1036A000B3F5807F03D07B689B68012B02D14FF478
:1036B000807300E000233A6913433B617B685B69D8
:1036C000012B19D17B68DB68002B09D17B689B69D2
:1036D000013B5A033B69134343F400633B610BE036
:1036E0007B689B6A43F020027B689A627B68DB6A96
:1036F00043F001027B68DA627B681B685B6823F435
:1037000069417B681B683A690A435A607B681B6899
:103710009A68294B13407A681268B9680B43936022
:103720007B689B68B3F5807F03D07B689B68012B27
:1037300004D17B681B69013B1B05FB607B681B6830
:10374000DB6A23F470017B681B68FA680A43DA625B
:103750007B681B689A68194B1340BA689A420BD170
:103760007B680022DA627B689B6A23F0030343F0E4
:1037700001027B689A6218E07B689B6A23F012035F
:1037800043F010027B689A627B68DB6A43F00102B7
:103790007B68DA620123FB7507E07B689B6A43F074
:1037A00010027B689A620123FB75FB7D184618376F
:1037B000BD4680BD003C0140FDF7E1FFFE0E1FFF4E
:1037C00080B586B000AFF860B9607A600023FB7501
:1037D000FB681B68644A934204D0FB681B68634A19
:1037E000934206D1604B5B6803F47023002B40F0DA
:1037F000B380FB6893F82430012B01D10223AEE0A3
:10380000FB68012283F82420F86800F097FA034649
:10381000FB75FB7D002B40F09A80FB689B6A23F4CC
:10382000706323F0010343F48072FB689A62FB68C3
:103830001B684E4A934205D14B4B5B6803F47023DF
:10384000002B15D1FB689B6A23F48012FB689A62F7
:10385000FB681B685B6803F48063002B26D0FB6861
:103860009B6A23F4405343F48052FB689A621DE044
:10387000FB689B6A43F48012FB689A62FB681B68D2
:10388000394A934204D0FB681B68384A93420DD1F1
:10389000354B5B6803F48063002B07D0FB689B6AA1
:1038A00023F4405343F48052FB689A62FB689B6A9E
:1038B00003F48053002B06D0FB68DB6A23F006027A
:1038C000FB68DA6202E0FB680022DA62FB68002231
:1038D00083F82420FB681B6A254A9A62FB681B6AEE
:1038E000244ADA62FB681B6A234A1A63FB681B6876
:1038F0006FF002021A60FB681B689A68FB681B681D
:1039000042F480729A60FB68186AFB681B684C334B
:103910001946BA687B6806F071FDFB681B689B68F6
:1039200003F46023B3F5602F08D1FB681B689A6825
:10393000FB681B6842F4A0029A600FE0FB681B68FA
:103940009A68FB681B6842F480129A6006E0FB6884
:10395000002283F8242001E00123FB75FB7D18463B
:103960001837BD4680BD00BF00240140002801403B
:10397000553E0008D13E0008ED3E000880B582B0FB
:1039800000AF78607B681B685B6803F02003202B26
:1039900040D17B681B681B6803F00203022B39D1FE
:1039A0007B689B6A03F01003002B05D17B689B6A40
:1039B00043F400727B689A627B681B689B6803F41F
:1039C0006023B3F5602F1DD17B68DB68002B19D114
:1039D0007B681B685A687B681B6822F020025A606B
:1039E0007B689B6A23F480727B689A627B689B6A1F
:1039F00003F48053002B05D17B689B6A43F00102DE
:103A00007B689A62786800F07CF87B681B686FF0CE
:103A100012021A607B681B685B6803F08003802BCE
:103A20004FD17B681B681B6803F00403042B48D14B
:103A30007B689B6A03F01003002B05D17B689B6AAF
:103A400043F400527B689A627B681B689B6803F4AE
:103A5000E043B3F5E04F12D07B681B685B6803F46A
:103A60008063002B25D17B681B689B6803F460236F
:103A7000B3F5602F1DD17B68DB68002B19D17B6803
:103A80001B685A687B681B6822F080025A607B685A
:103A90009B6A23F480527B689A627B689B6A03F47A
:103AA0008073002B05D17B689B6A43F001027B6821
:103AB0009A62786800F034FA7B681B686FF00C0239
:103AC0001A607B681B685B6803F04003402B14D1CD
:103AD0007B681B681B6803F00103012B0DD17B6819
:103AE0009B6A43F480327B689A62786800F01BF826
:103AF0007B681B686FF001021A6000BF0837BD4683
:103B000080BD80B483B000AF786000BF0C37BD4685
:103B100080BC704780B483B000AF786000BF0C37C2
:103B2000BD4680BC704780B483B000AF786000BFF2
:103B30000C37BD4680BC704780B483B000AF78605E
:103B400000BF0C37BD4680BC7047000080B485B014
:103B500000AF786039600023FB730023BB607B6893
:103B600093F82430012B01D10223DCE07B68012291
:103B700083F824203B685B68062B1CD87B681B6895
:103B8000596B3B685A6813469B001344053B1F2240
:103B900002FA03F3DB4319403B6818683B685A6834
:103BA00013469B001344053B00FA03F27B681B6835
:103BB0000A435A633CE03B685B680C2B1CD87B686B
:103BC0001B68196B3B685A6813469B001344233BE0
:103BD0001F2202FA03F3DB4319403B6818683B6875
:103BE0005A6813469B001344233B00FA03F27B6898
:103BF0001B680A431A631BE07B681B68D96A3B6831
:103C00005A6813469B001344413B1F2202FA03F3F8
:103C1000DB4319403B6818683B685A6813469B00B1
:103C20001344413B00FA03F27B681B680A43DA62E3
:103C30003B681B68092B1CD97B681B68D9683B68EB
:103C40001A6813465B0013441E3B072202FA03F373
:103C5000DB4319403B6898683B681A6813465B0071
:103C600013441E3B00FA03F27B681B680A43DA60C8
:103C700019E07B681B6819693B681A6813465B008A
:103C80001344072202FA03F3DB4319403B689868A8
:103C90003B681A6813465B00134400FA03F27B6822
:103CA0001B680A431A613B681B68102B03D03B68F2
:103CB0001B68112B32D17B681B681D4A934225D1AA
:103CC0007B681B689B6803F40003002B26D17B688C
:103CD0001B689A687B681B6842F400029A603B6824
:103CE0001B68102B1AD1134B1B68134AA2FB03232A
:103CF0009A0C13469B0013445B00BB6002E0BB6858
:103D0000013BBB60BB68002BF9D107E07B689B6A75
:103D100043F020027B689A620123FB737B680022D8
:103D200083F82420FB7B18461437BD4680BC7047BF
:103D3000002401402000002083DE1B4380B584B0B6
:103D400000AF78600023FB600023BB607B681B68CA
:103D50009B6803F00103012B39D07B681B689A68CC
:103D60007B681B6842F001029A601B4B1B681B4A70
:103D7000A2FB03239B0CBB6002E0BB68013BBB6062
:103D8000BB68002BF9D102F08FF9F86018E002F05F
:103D90008BF90246FB68D31A022B11D97B689B6A08
:103DA00043F010027B689A627B68DB6A43F0010291
:103DB0007B68DA627B68002283F82420012307E015
:103DC0007B681B689B6803F00103012BDFD1002394
:103DD00018461037BD4680BD2000002083DE1B43FF
:103DE00080B584B000AF78600023FB607B681B68FF
:103DF0009B6803F00103012B27D17B681B689A683D
:103E00007B681B6822F001029A6002F04DF9F860AD
:103E100014E002F049F90246FB68D31A022B0DD9CF
:103E20007B689B6A43F010027B689A627B68DB6A5E
:103E300043F001027B68DA62012307E07B681B68BC
:103E40009B6803F00103012BE3D0002318461037D1
:103E5000BD4680BD80B584B000AF78607B685B6A8A
:103E6000FB60FB689B6A03F05003002B27D1FB68C3
:103E70009B6A43F40072FB689A62FB681B689B684C
:103E800003F46023B3F5602F15D1FB68DB68002BCA
:103E900011D1FB689B6A23F48072FB689A62FB680D
:103EA0009B6A03F48053002B05D1FB689B6A43F0A7
:103EB0000102FB689A62F868FFF723FE04E0FB68E2
:103EC0001B6A1B6B7868984700BF1037BD4680BDE2
:103ED00080B584B000AF78607B685B6AFB60F8688F
:103EE000FFF718FE00BF1037BD4680BD80B584B017
:103EF00000AF78607B685B6AFB60FB689B6A43F09D
:103F00004002FB689A62FB68DB6A43F00402FB68CC
:103F1000DA62F868FFF710FE00BF1037BD4680BDBB
:103F200080B483B000AF786000BF0C37BD4680BC62
:103F30007047000080B400AF144BDB68134A23F0D5
:103F40008073D360114BDB68104A43F08073D360F9
:103F50000F4B1B680E4A23F0010313600C4B1B68C8
:103F60000B4A43F001031360094B00225A6000BF63
:103F700000BF00BF064B5B68002B01D0002300E0B0
:103F800001231846BD4680BC704700BFF0ED00E03D
:103F9000001000E080B584B000AF3B1D00221A6025
:103FA0005A609A60194B1A4A1A60184B4FF4807283
:103FB0009A60164B0122DA60144B00225A61134BAF
:103FC0004FF46022DA61114B00225A600F4B01223C
:103FD0001A610E48FFF70AFB0346002B01D001F0DF
:103FE000CAFF05237B600123BB600023FB603B1DF0
:103FF00019460648FFF7AAFD0346002B01D001F041
:10400000BAFF00BF1037BD4680BD00BF7436002028
:104010000024014080B588B000AF786007F110033C
:1040200000221A605A609A60DA607B681B682C4A2A
:10403000934251D12B4B9B692A4A43F400739361FD
:10404000284B9B6903F40073FB60FB68254B9B695D
:10405000244A43F004039361224B9B6903F0040359
:10406000BB60BB6820233B6103237B6107F1100326
:1040700019461D4806F08CFE1C4B1D4A1A601B4B4E
:1040800000225A60194B00229A60184B8022DA6095
:10409000164B4FF400721A61144B4FF400625A61D0
:1040A000124B20229A61114B0022DA610F4806F070
:1040B0002FF90346002B01D001F05DFF7B680B4A0E
:1040C0001A620A4A7B68536200220621122005F018
:1040D000BCFA122005F0D5FA00BF2037BD4680BDDE
:1040E000002401400010024000080140A4360020D6
:1040F0000800024080B483B000AF084B5B69074AF8
:1041000043F001035361054B5B6903F001037B60DE
:104110007B6800BF0C37BD4680BC70470010024072
:1041200080B588B000AF07F1100300221A605A6012
:104130009A60DA60434B9B69424A43F020039361E3
:10414000404B9B6903F02003FB60FB683D4B9B6980
:104150003C4A43F0040393613A4B9B6903F0040328
:10416000BB60BB68374B9B69364A43F008039361D9
:10417000344B9B6903F008037B607B68314B9B6980
:10418000304A43F0100393612E4B9B6903F01003F8
:104190003B603B6801233B612B4B7B610123BB618F
:1041A00007F110031946294806F0F2FD0B233B6185
:1041B00001237B610123BB610323FB6107F1100332
:1041C0001946234806F0E4FD4FF400533B610123F8
:1041D0007B610123BB610323FB6107F110031946D7
:1041E0001C4806F0D5FD4FF480533B6101237B61F1
:1041F0000123BB610323FB6107F110031946154836
:1042000006F0C6FD4FF400433B6100237B610123B0
:10421000BB6107F1100319460E4806F0B9FD4FF4D3
:1042200080733B6101237B610123BB610323FB613D
:1042300007F110031946074806F0AAFD00BF203712
:10424000BD4680BD00100240000021100008014062
:1042500000100140000C0140B0B586B000AF094B22
:104260003C1D1D460FCD0FC42B6823603B1D002154
:10427000184604F019F90246034B1A6000BF1837BC
:10428000BD46B0BDACB200088C390020B0B58CB0D2
:1042900002AF214B07F114041D460FCD0FC42B684C
:1042A000236007F114030021184604F0FDF80246CC
:1042B0001A4B1A601A4B3C461D460FCD0FC42B6893
:1042C00023603B460021184604F0EEF80246154BE9
:1042D0001A60154B01930323009300238022134996
:1042E000134802F09DFC134B019304230093002319
:1042F00080221149114802F093FC114B01930623CF
:104300000093002380220F490F4802F089FC00BF70
:104310002837BD46B0BD00BFF4B20008EC3600201F
:1043200014B3000898390020F0360020C0B200080D
:10433000B947000894390020CCB20008E5470008CE
:10434000E8360020DCB20008E148000880B582B001
:1043500000AF0346FB71124B1B8801339AB2104B1E
:104360001A80104B1B8801339AB20E4B1A800E4BE9
:1043700000221A700D4B1B7883F00103DBB2002B77
:1043800005D00B4805F0B6F9084B01221A70094B0D
:104390001B68184602F07CFF00BF0837BD4680BD91
:1043A000C4020020A0020020CC010020CA0100208D
:1043B000E439002098390020B0B592B002AF03462E
:1043C000FB7107F10C03322200211846FCF74EFE68
:1043D000002387F83F30274B1C88274B1D88274B2D
:1043E0001B681846FCF72AF84FF00002244BFCF734
:1043F000B9F902460B4611461A4607F10C03009321
:1044000013460A4629462046FEF74EFD034687F826
:104410003F301C4B186800234FF0FF32002102F0A0
:1044200081F907F10C0297F83F3011461846FEF764
:10443000FDFE0346002B14BF01230023DAB2124B0A
:104440001A70124B1B78002B05D0114805F06CF93F
:104450000E4B00221A700C4B1A780E4B1A70094B37
:10446000186800230022002101F0CEFF00BF403772
:10447000BD46B0BDA0390020F6360020F836002039
:1044800000408F40D0020020CB010020CA01002054
:10449000E4390020CC01002080B586B002AF7860FE
:1044A0000023BB600A225E495E4806F043FE0622F6
:1044B00000215D48FCF7DAFD594BB3F811309AB290
:1044C000594B1A8058495948FCF77EFF0346002B88
:1044D0000AD1132200215648FCF7C8FD1122504989
:1044E0005348FCF74DFD83E05249534801F047FB28
:1044F0004FF4FA7003F0FFFF5049514801F0D4F82F
:104500004F4B93F84030002B6ED04E4B1B7801334D
:10451000DAB24C4B1A704A4B002283F84020494BC8
:104520001B78012B5CD9042200214748FCF79EFD33
:10453000032246494448FCF723FD43494448FCF71D
:1045400043FF0346002B42D142493D4801F0ACF8FD
:10455000132200213648FCF789FD394B93F841308E
:104560000C3B1A463C493248FCF70AFD0123FB602C
:104570001CE0FB68012B09D1FB689BB25B009BB27E
:104580003A2213212A48FEF737FD0CE0FB689BB264
:104590001A46520013449BB2013B9BB23A221321AC
:1045A0002348FEF729FDFB680133FB60FB68052B00
:1045B000DFDD112300930223284A11211C48FEF756
:1045C000E1FC13221A49174806F0D5FD10E01C4BF8
:1045D00093F841301A4600212148FCF747FD03E0DB
:1045E0002049174801F060F8052003F084FF87E7B1
:1045F0001D4A1E490E48FEF73BFD4FF47A7003F04A
:104600007AFF04F02FFAFFF741FE194B1B6818469A
:1046100002F040FC04F054FA00BF1037BD4680BDE4
:10462000EC01002000F4010800020020040000203A
:10463000D801002028B30008F03B002034B3000864
:10464000243A0020CE010020D4010020733A00203B
:10465000000000203CB30008773A002048B300086F
:10466000703A00204CB30008080200200C00002023
:104670008C39002080B584B000AF78603223FB60B5
:1046800002F058FF0346BB600F4B1B78012B14D17F
:104690000D4B00221A700D4B186800234FF0FF32AB
:1046A000002102F03FF80A4800F012FB074B18689F
:1046B00000230022002101F0A7FE07F10803F9689A
:1046C000184602F075FCDFE7F4360020D002002027
:1046D000243A002080B588B002AF78604FF47A7336
:1046E0007B61294B186807F10C0100237A6902F0FD
:1046F00019F838613B69012B15D1FB681A88234BE7
:104700001A80FB681A89224B1A80FB685B68214A71
:104710001360FB689A7A204B1A70FB685B88DAB2E8
:104720001E4B1A7022E01E4B186800234FF0FF3218
:10473000002101F0F7FF00221A491B48FEF7AAFDED
:10474000002218491848FEF7A5FD0022174916480F
:10475000FEF7A0FD124B186800230022002101F093
:1047600053FE134B1B68184602F0D0FC0A4B197815
:1047700001230093002300220E48FDF76DFF322035
:1047800003F0B9FEADE700BFC8020020A039002049
:10479000F6360020F8360020C8010020C9010020AC
:1047A000BC02002058B300083C3D002060B3000864
:1047B00098390020B943000880B584B002AF786012
:1047C0000121064806F052FC0346194600230093D7
:1047D000012300220248FDF73FFFF1E700080140F6
:1047E0004D43000880B584B000AF78607B68FB6003
:1047F000304B9B692F4A43F0040393612D4B9B6917
:1048000003F00403BB60BB68FFF774FCFFF7C2FB57
:10481000642229492948FEF7D3FF00F0E9F9FEF7A1
:1048200003FE0121264806F050FC264B1B78002B86
:1048300011D0254B1B785A1CD1B2234A1170052B7D
:104840000CD9214B00221A701E4B00221A701F4BEC
:1048500001221A6002E01C4B00221A701C4B1A78CD
:104860001C4B1B789A4202D32020FEF7C7FC1A4B40
:104870001B7883F00103DBB2002B12D0144B1B78A2
:10488000002B0ED1154B1B785A1CD1B2134A117054
:104890000A2B09D9114B00221A700C4B01221A6005
:1048A00002E00E4B00221A704FF47A7002F0FAFB0D
:1048B000B7E700BF00100240FC370020743600202C
:1048C00000100140CC010020CD010020A081214238
:1048D000C90100209C020020CA0100209D02002086
:1048E00080B58AB000AF78607B68BB6100237B62D3
:1048F00064237B6102F01EFE0346FB60002387F801
:104900002330796A994BA3FB0123DA0813469B00F5
:1049100013445B00CA1A002A39D1954B186800234A
:104920004FF0FF32002101F0FDFE97F82330012BFC
:104930001BD1904B9B781A46642303FB02F38D4AEC
:10494000D27813441A468C498C48FEF7B9FC894B3F
:104950001B781A46642303FB02F3864A52781344F9
:104960001A4687498548FEF7ABFC864B1B686422D4
:1049700002FB03F31B0B1A4683498048FEF78AFCAF
:104980007B4B186800230022002101F03DFD796A6D
:10499000764BA3FB01231A0913469B0013449B008B
:1049A000CA1A002A33D1794B186800234FF0FF321E
:1049B000002101F0B7FE6F48FEF79AFD034687F825
:1049C0002330724B186800230022002101F01CFDE7
:1049D000002387F822300EE097F822306C4A52F814
:1049E0002320684B1B681344664A136097F82230F3
:1049F000013387F8223097F82230632BECD9614BD2
:104A00001B68644AA2FB03235B095E4A13607B6A4E
:104A100003F00303002B42D15C4B186800234FF0D6
:104A2000FF32002101F07EFE5B4B1B781A465B498A
:104A30005248FEF72FFC5A4B1B685A4A82FB03125E
:104A40009210DB17D31A1A4657494C48FEF722FC3E
:104A5000564B1B881A4656494848FEF71BFC4E4BDE
:104A60001B781A46642303FB02F3FB61FB69002BEE
:104A700001D10123FB61FB69B3F57A7F02DD4FF4BD
:104A80007A73FB61FB691A464A493C48FEF702FC0F
:104A90003E4B186800230022002101F0B5FC796A22
:104AA000454BA3FB01235A0813465B001344CA1A63
:104AB000002A51D1354B186800234FF0FF320021F6
:104AC00001F030FE3D4B1B883D4AA2FB0323DB0A6D
:104AD0009BB2FB74394B1B88394AA2FB0312D20AE2
:104AE0004FF4616101FB02F29B1A9BB2354AA2FBB3
:104AF00003235B099BB2BB74304B1B88304AA2FB7B
:104B00000312D20A4FF4616101FB02F29B1A9AB2BE
:104B10002C4BA3FB021359090B461B015B1A9B008C
:104B2000D31A9BB27B74FB7C1A4627491348FEF7C5
:104B3000B1FBBB7C1A4625491048FEF7ABFB7B7CDA
:104B40001A4623490D48FEF7A5FB104B18680023B1
:104B50000022002101F058FC07F10C033221184615
:104B600002F026FA7B6A01337B62CAE6CDCCCCCC5C
:104B7000D00200205C36002068B300083C3D0020D5
:104B800070B300089039002078B30008BC02002000
:104B9000FC3700201F85EB51C901002080B30008BD
:104BA000F83600206766666688B30008A0390020E2
:104BB00058B3000890B30008ABAAAAAAF6360020A2
:104BC000C5B3A291898888889CB30008A4B3000863
:104BD000ACB3000880B400AF044B1B680133034A38
:104BE000136000BFBD4680BC704700BFD0010020ED
:104BF00080B500AF104B186800234FF0FF32002142
:104C000001F090FD0D4A0E490E48FEF775FBFA20A3
:104C100002F048FA094A0A490A48FEF76DFBFA20F1
:104C200002F040FA044B186800230022002101F032
:104C3000EBFB00BF80BD00BFBC02002008020020CB
:104C4000B4B300083C3D002080B485B000AF78606C
:104C50000B46FB700023FB7300237B7300237B73E5
:104C600024E07B7B002B10D17B7B7A6813441B787C
:104C700083F01E03DB43BB737B7B7A6813441B7892
:104C800083F01D03DB43FB730DE07B7B7A681344E9
:104C90001A78BB7B5340BB737B7B7A6813441A78CA
:104CA000FB7B5340FB737B7B01337B737A7BFB780D
:104CB000023B9A42D5DB7B681233BA7B1A707B6861
:104CC0001333FA7B1A7000BF1437BD4680BC70479F
:104CD00080B5A0B000AF786007F16C0300221A60C5
:104CE0005A609A60DA601A6107F1580300221A606C
:104CF0005A609A60DA601A6107F1440300221A6070
:104D00005A609A60DA601A6107F1300300221A6073
:104D10005A609A60DA601A6107F11C0300221A6077
:104D20005A609A60DA601A6107F1080300221A607B
:104D30005A609A60DA601A61AA2387F844305523D2
:104D400087F84530032387F84630D84B1B881B0A69
:104D50009BB2DBB287F84730D44B1B88DBB287F8B5
:104D60004830D34B1B881B0A9BB2DBB287F8493013
:104D7000CF4B1B88DBB287F84A30CE4B1B681B1227
:104D8000DBB287F84B30CB4B1B68DBB287F84C307B
:104D9000002387F84D300A2387F84E30C64B1B7826
:104DA0001B12DBB287F84F30C34B1B7887F85030AB
:104DB0000D2387F851300E2387F852300F2387F8E0
:104DC0005330102387F85430112387F855301223BD
:104DD00087F85630FF2387F8573007F14403142132
:104DE0001846FFF731FFAA2387F83030552387F89C
:104DF0003130042387F83230012387F8333002231F
:104E000087F83430032387F83530042387F83630A9
:104E1000A74B1B881B0A9BB2DBB287F83730A44B29
:104E20001B88DBB287F83830072387F8393008232E
:104E300087F83A30092387F83B300A2387F83C305B
:104E4000002387F83D30492387F83E30002387F858
:104E50003F30002387F84030002387F8413000239B
:104E600087F8423007F1300314211846FFF7ECFEB3
:104E7000AA233B7755237B770523BB770023FB775A
:104E8000002387F82030002387F82130002387F89B
:104E90002230002387F82330002387F824300023B2
:104EA00087F82530002387F82630002387F827303D
:104EB000002387F82830002387F82930002387F85B
:104EC0002A30002387F82B30002387F82C3000236A
:104ED00087F82D30002387F82E3007F11C031421AA
:104EE0001846FFF7B1FEAA233B7255237B720023BD
:104EF000BB720023FB7200233B7301237B730023EF
:104F0000BB730023FB7300233B7400237B740023DB
:104F1000BB740023FB7400233B7500237B750023C7
:104F2000BB750023FB7500233B7600237B760023B3
:104F3000BB76FF23FB76AA2387F86C30552387F8CE
:104F40006D30012387F86E305C4B1B7887F86F302B
:104F50005A4B5B7887F87030584B9B7887F87130E4
:104F6000564BDB7887F87230544B1B7987F87330D7
:104F7000524B5B7987F87430504B9B7987F87530CA
:104F80004E4BDB7987F876304C4B1B7A87F87730BD
:104F90004A4B5B7A87F87830002387F87930002312
:104FA00087F87A30002387F87B30002387F87C303D
:104FB000002387F87D30002387F87E30F62387F8BA
:104FC0007F3007F16C0314211846FFF73DFEAA233A
:104FD00087F85830552387F85930022387F85A301C
:104FE000364B9B7A87F85B30344BDB7A87F85C3042
:104FF000324B1B7B87F85D30304B5B7B87F85E3034
:105000002E4B9B7B87F85F302C4BDB7B87F8603027
:105010002A4B1B7C87F86130284B5B7C87F8623019
:10502000264B9B7C87F86330244BDB7C87F864300D
:10503000002387F86530002387F86630002387F85F
:105040006730002387F86830002387F86930002331
:1050500087F86A30F62387F86B3007F1580314217C
:105060001846FFF7F1FD07F16C011423142278684C
:1050700004F052FF07F1580114231422786804F059
:105080004BFF07F1440114231422786804F044FF15
:1050900007F1300114231422786804F03DFF07F172
:1050A0001C011423142278680AE000BFF6360020A1
:1050B000A0390020F8360020C90100200C00002093
:1050C00004F02AFF07F1080114231422786804F081
:1050D00023FF00BF8037BD4680BD00BF80B590B0C4
:1050E00000AF07F11803282200211846FBF7BEFF86
:1050F0003B1D00221A605A609A60DA601A6101232F
:10510000BB614FF48033FB6100233B620123BB6230
:1051100002237B634FF48033BB634FF4E013FB63E4
:1051200007F11803184603F08DFD0346002B01D04C
:1051300000F021FF0F237B600223BB600023FB6094
:105140004FF480633B6100237B613B1D02211846C5
:1051500003F0DCFF0346002B01D000F00CFF00BF82
:105160004037BD4680BD000080B588B000AF034623
:10517000FB801E4B4FF080421A601C4B47225A6046
:105180001A4B00229A60FB88184AD360174B002202
:105190001A61164B80229A61144804F080FA034683
:1051A000002B01D000F0E7FE4FF480533B6107F184
:1051B000100319460D4804F0E9FB0346002B01D00B
:1051C00000F0D9FE0023BB600023FB6007F1080359
:1051D0001946064804F0FDFD0346002B01D000F0FF
:1051E000CAFE00BF2037BD4680BD00BFE4390020A5
:1051F00080B584B000AF78607B681B68B3F1804FE6
:1052000014D1194BDB69184A43F00103D361164BE3
:10521000DB6903F00103FB60FB68042205211C200D
:1052200004F013FA1C2004F02CFA18E07B681B68C9
:105230000E4A934213D10C4BDB690B4A43F0020335
:10524000D361094BDB6903F00203BB60BB68032237
:1052500002211D2004F0F9F91D2004F012FA00BF0C
:105260001037BD4680BD00BF001002400004004062
:1052700080B584B000AF78600023FB604E4BBB600C
:105280007B681B684D4A934201D100F0FBFE7B68AE
:105290001B68B3F1804F40F08A80494B1B885A1C31
:1052A00091B2474A1180B3F57A7F12D9444B00225C
:1052B0001A80BB68434A12885A80424B00221A80E7
:1052C000BB685B88002B04D0BB681A89013292B29C
:1052D0001A81BB685B88002B24D13B4B1B885A1C6E
:1052E00091B2394A118041F2883293420CD9364B3F
:1052F00000221A80354B1B88002B02D0BB6801228C
:105300009A72334B01221A70324B1B78002B0FD04C
:10531000304B00221A702D4B00221A80BB680022ED
:105320001A8105E0BB6800229A722B4B00221A708A
:105330002A4B1B885A1C91B2284A1180312B28D93C
:10534000264B00221A80BB68204A12881A801F4B05
:105350001B881A46224B1B781946BB6801FB02F2D8
:105360005A60204B1B68002B13D01E4B186807F1A6
:105370000C0207F10801002301F040F9FB68002B43
:1053800007D0194B4FF080521A60BFF34F8FBFF315
:105390006F8F164B1B885A1C91B2144A1180642BD4
:1053A00005D9124B00221A80114B01221A7000BF3E
:1053B0001037BD4680BD00BFA40200200008004099
:1053C000B2020020C4020020B4020020A00200208B
:1053D000B0020020CB010020CC010020B60200204A
:1053E000CC020020C802002004ED00E0B80200203A
:1053F000F436002080B584B000AFF860B9607A6000
:105400007B689AB2FF23B968064804F085FD064B15
:105410001B689B681846FBF729FC7B681846103709
:10542000BD4680BD3C3D00203000002080B584B0EA
:1054300000AFF860B9607A60FB68BA681A60FB6810
:105440007A685A60FB6800229A60FB680022DA6082
:10545000FB6800221A61FB680C225A61FB6800227B
:105460009A61FB680022DA61F86804F008FD0346DF
:10547000002B01D000F07FFD00BF1037BD4680BD7E
:1054800080B58CB000AF786007F1200300221A606D
:105490005A609A60DA607B681B686D4A93424AD111
:1054A0006C4B9B696B4A43F480439361694B9B69E6
:1054B00003F48043FB61FB69664B9B69654A43F0DB
:1054C00004039361634B9B6903F00403BB61BB69F5
:1054D0004FF400733B6202237B620323FB6207F1FC
:1054E000200319465C4805F053FC4FF480633B628F
:1054F00000237B620023BB6207F120031946564854
:1055000005F046FC00220521252004F09EF8252008
:1055100004F0B7F87B681B68DA687B681B6842F0A8
:105520002002DA607B681B68DA687B681B6842F0DF
:105530001002DA6088E07B681B68484A93423CD1DD
:10554000444BDB69434A43F40033D361414BDB698D
:1055500003F400337B617B6904233B6202237B629B
:105560000323FB6207F1200319463B4805F010FCBA
:1055700008233B6200237B620023BB6207F1200308
:105580001946354805F004FC00220521262004F0C8
:105590005CF8262004F075F87B681B68DA687B6885
:1055A0001B6842F02002DA607B681B68DA687B685F
:1055B0001B6842F01002DA6046E07B681B68284AEC
:1055C000934241D1234BDB69224A43F48023D361C8
:1055D000204BDB6903F480233B613B691D4B9B69D6
:1055E0001C4A43F0080393611A4B9B6903F00803BC
:1055F000FB60FB684FF480633B6202237B62032302
:10560000FB6207F120031946164805F0C1FB4FF471
:1056100000633B6200237B620023BB6207F120032F
:105620001946104805F0B4FB7B681B68DA687B6894
:105630001B6842F02002DA607B681B68DA687B68CE
:105640001B6842F01002DA6000BF3037BD4680BDF3
:1056500000380140001002400008014000440040B2
:1056600000480040000C014080B483B000AF786077
:105670000B46FB707B681B681B687B681B686FF0C0
:1056800040021A607B681B68FA785A6000BF7B682A
:105690001B681B6803F04003402BF8D10023184619
:1056A0000C37BD4680BC704780B483B000AF7860D3
:1056B00039607B681B681B6813E07B681B686FF0B0
:1056C00040021A603B685A1C3A601A787B681B6873
:1056D0005A6000BF7B681B681B6803F04003402BC7
:1056E000F8D13B681B78002BE7D1002318460C3714
:1056F000BD4680BC7047000080B485B000AF7860C4
:105700007B680F2B52D801A252F823F04D570008A6
:1057100053570008595700085F570008655700089D
:105720006B57000871570008775700087D5700082D
:1057300083570008895700088F57000895570008BD
:105740009B570008A1570008A75700083023FB7398
:105750002FE03123FB732CE03223FB7329E033234A
:10576000FB7326E03423FB7323E03523FB7320E037
:105770003623FB731DE03723FB731AE03823FB73DA
:1057800017E03923FB7314E04123FB7311E042233C
:10579000FB730EE04323FB730BE04423FB7308E031
:1057A0004523FB7305E04623FB7302E03023FB73C4
:1057B00000BFFB7B18461437BD4680BC704700BF56
:1057C00090B58FB000AFF860B9607A60FB687B631A
:1057D0007B680A2B03D0102B00F0A48008E1BB6883
:1057E000864AA2FB03235B0B7B627B6A002B07D0FC
:1057F0007C6B631C7B63786AFFF77EFF0346237034
:10580000BB687F4AA2FB032399097E4BA3FB0123BC
:10581000DA0813469B0013445B00CA1A3A623B6ADB
:10582000002B08D07C6B631C7B63386AFFF764FF36
:10583000034623700AE07B6A002B07D07C6B631C55
:105840007B630020FFF758FF03462370BB686E4A56
:10585000A2FB032359096B4BA3FB0123DA08134670
:105860009B0013445B00CA1AFA61FB69002B08D045
:105870007C6B631C7B63F869FFF73EFF0346237074
:105880000AE03B6A002B07D07C6B631C7B63002023
:10589000FFF732FF03462370BB685A4AA2FB03237B
:1058A000D908584BA3FB0123DA0813469B00134485
:1058B0005B00CA1ABA61BB69002B08D07C6B631C01
:1058C0007B63B869FFF718FF034623700AE0FB69A2
:1058D000002B07D07C6B631C7B630020FFF70CFF61
:1058E00003462370B968474BA3FB0123DA0813462C
:1058F0009B0013445B00CA1A7A617B69002B08D0B5
:105900007C6B631C7B637869FFF7F6FE03462370AC
:105910006EE07C6B631C7B630020FFF7EDFE0346AB
:10592000237065E07B6B5A1C7A6330221A707B6BA4
:105930005A1C7A6378221A70BB681B0B3B633B6B63
:10594000002B07D07C6B631C7B63386BFFF7D4FEA6
:1059500003462370BB681B0A03F00F033B633B6BDA
:10596000002B08D07C6B631C7B63386BFFF7C4FE95
:10597000034623700AE03B6B002B07D07C6B631C53
:105980007B630020FFF7B8FE03462370BB681B094A
:1059900003F00F03FB62FB6A002B08D07C6B631CD7
:1059A0007B63F86AFFF7A8FE0346237007E07C6B71
:1059B000631C7B630020FFF79FFE03462370BB68D8
:1059C00003F00F03BB62BB6A002B08D07C6B631C27
:1059D0007B63B86AFFF790FE0346237007E07C6B99
:1059E000631C7B630020FFF787FE0346237000BF24
:1059F0007B6B18463C37BD4690BD00BF5917B7D1E9
:105A0000D34D6210CDCCCCCC1F85EB5180B586B088
:105A100000AFF860B9607A60FB687B6188E0BB68C2
:105A20001B780A2B0AD17B695A1C7A610D221A70E5
:105A30007B695A1C7A610A221A7076E0BB681B786F
:105A4000252B06D07B695A1C7A61BA6812781A70C5
:105A50006BE0BB680133BB60BB681B78633B152BF5
:105A600062D801A252F823F0C15A0008FB5A00087C
:105A7000295B0008275B0008295B0008295B0008F8
:105A8000295B0008295B0008295B0008295B0008E6
:105A9000295B0008295B0008295B0008295B0008D6
:105AA000295B0008295B0008D55A0008295B00081B
:105AB000295B0008295B0008295B0008115B0008CE
:105AC0007B681A1D7A6019687B695A1C7A61CAB2B0
:105AD0001A702AE07B681A1D7A601B683B6107E038
